:020000041000EA
:1000000000B5324B212058609868022188439860DF
:10001000D860186158612E4B002199600221596106
:100020000121F02299502B49196001219960352056
:1000300000F044F80222904214D00621196600F024
:1000400034F8196E01211966002018661A6600F04E
:100050002CF8196E196E196E052000F02FF8012189
:100060000842F9D1002199601B49196000215960AB
:100070001A491B48016001219960EB211966A021F2
:10008000196600F012F800219960164914480160C1
:100090000121996001BC002800D000471248134993
:1000A000086003C880F30888084703B5996A0420EC
:1000B0000142FBD001200142F8D103BD02B5186610
:1000C0001866FFF7F2FF186E186E02BD00000240BE
:1000D000000000180000070000035F00212200005C
:1000E000F4000018222000A00001001008ED00E03C
:1000F00000000000000000000000000074B24E7A12
:1001000000200420F7010010C3010010C5010010F9
:10011000C1010010C1010010C1010010C101001097
:10012000C1010010C1010010C1010010C701001081
:10013000C1010010C1010010C9010010CB01001065
:10014000CD010010CD010010CD010010CD01001037
:10015000CD010010CD010010CD010010CD01001027
:10016000CD010010CD010010CD010010CD01001017
:10017000CD010010CD010010CD010010CD01001007
:10018000CD010010CD010010CD010010CD010010F7
:10019000CD010010CD010010CD010010CD010010E7
:1001A000CD010010CD010010CD010010CD010010D7
:1001B000CD010010CD010010CD010010CD010010C7
:1001C00000BE00BE00BE00BE00BE00BEEFF3058054
:1001D000103800BEF2EB8871D80200101C0300102A
:1001E0003402001090A31AE700202249086006C8D4
:1001F00081F30888104720480068002835D10DA4F5
:100200000ECC002902D000F012F8F9E71B491C4A75
:10021000002000E001C19142FCD11A4988471A49E7
:1002200088471A49884700BEFDE701C901C29A42C2
:10023000FBD370471C030010C0000020288C002056
:10024000848E0010308C002080A00020D4A20010EA
:100250000000042000000420D4A20010001004209C
:1002600000100420000000007047094800F014F856
:100270000047000008ED00E0000000D080A0002052
:10028000A4050220FD360020C9010020F13700201E
:10029000575600000000000001B40248844601BC2B
:1002A000604700BF9D38002006005250ABB360533A
:1002B0008C9A002006005250861C03029C9A002053
:1002C000060052505422A29DA89A002005005250C8
:0802D000DE65F468D4A2001001
:1002D800A49B0020989B00208C9B0020809B0020E2
:1002E800749B0020689B0020749D0020809D002046
:1002F800A80200108C9D0020B4020010C00200105B
:10030800CC020010C09E0020B49E0020A89D0020B2
:040318009C9D002088
:10031C00F8B5C0460448054B10B5834203D0044BD6
:10032C00002B00D0984710BD80A0002080A000209A
:10033C000000000006480749091A8B10C90FC9189C
:10034C0010B5491003D0044B002B00D0984710BDBA
:10035C0080A0002080A000200000000010B5074CF9
:10036C002378002B09D1FFF7D5FF054B002B02D0CA
:10037C00044800E000BF0123237010BDE8A3002057
:10038C0000000000288C0020054B10B5002B03D07A
:10039C000449054800E000BFFFF7CCFF10BDC04684
:1003AC0000000000ECA30020288C00207047C04601
:1003BC0010B5192002F08EFFD02380221B06920468
:1003CC005A6210BD30B583B007F0DCFDD024012596
:1003DC000190240601200021404204F087FB636851
:1003EC005B0E1D420BD080239B04A36104F06EFBBB
:1003FC000028EFD1012101A807F064FFEAE704F01F
:10040C00D9FA0028EFD004F0DDFA0028EBD18023D4
:10041C009B046361EAE7C04610B582B0FFF7C6FFE4
:10042C0006F060FA00F07CFB00F018FA05F048FECC
:10043C0004F084F801F012FDFFF7BAFF124B802490
:10044C0001930323640022000093104900231048F9
:10045C0007F0D4FA0F4B2200019302230E490093AC
:10046C000E48002307F0CAFA0D4B2200019301231A
:10047C000C4900930C48002307F0C0FA07F08EFCDF
:10048C00002002B010BDC046A00401203499002009
:10049C0071070020680401203C99002075010020A0
:1004AC000CFD002040990020790E002000207047A0
:1004BC0070B51800084C04AB1D88210000F0D8FE64
:1004CC002B1C402D00D94023220000219BB2002080
:1004DC0005F032FB70BDC04634A60020F0B5050017
:1004EC001400012083B0012905D1137800205B068C
:1004FC009B0F022B01D003B0F0BD5378012BFAD126
:10050C00637912791B021343072BF4D16B46074E08
:10051C009F1D31000222380003F024FE320021001E
:10052C0028003B88083A04F043FFE4E7B89B00201E
:10053C007047C04610B50248097803F085FAC046EA
:10054C004499002010B5014803F07EFA74990020FC
:10055C0000487047B09C0020004870478C9C0020DD
:10056C003E2306220148C2547047C046109F00200B
:10057C0070B5002822D0062829D8164B8000C55803
:10058C00280008F0EDFBC0B2041C1F2814D8C026AC
:10059C00E4B2631CDBB25B00B6001E43002808D03B
:1005AC0000230D4AE95C01331180D9B202328C422E
:1005BC00F8D80A48068070BD1F24E8E7C126054B11
:1005CC0002220548196803F0CDFDB600F1E70020C2
:1005DC00F1E7C046F49E0020EEB80020ECB80020F5
:1005EC0000487047649C002010B50400052003F0FF
:1005FC0039F9FA21890003F0ABFA210003F0A8FACB
:10060C00032805D980080004C823034AD05010BD24
:10061C0080204002F8E7C04600002050431EFF2017
:10062C0010B5802418400A4B64001B68094A5B0211
:10063C00184304438020400253680342FCD18020BD
:10064C001461044A400253680342FCD1116110BD8D
:10065C008001012000002050431EFF208021184003
:10066C00094B0A4A1B6849025B02184353680B4248
:10067C00FCD110618022054952024B6818001040D1
:10068C001342FAD10861704780010120000020500C
:10069C000E4B30B51C68FF2380210500421E083428
:1006AC00134064020A4A1C43490253680B42FCD1B2
:1006BC0080211461064A490053680B42FCD1106A30
:1006CC001F2D02D820235B1BD84030BD8001012098
:1006DC00000020500A4B80211868FF230330400291
:1006EC00084A1843490253680B42FCD18021490443
:1006FC0010619160034A93680B42FCD07047C0466E
:10070C00800101200000205080210A4B0A481B6800
:10071C000A4A03335B021843490253680B42FCD16B
:10072C008021490410619160044A93680B42FCD00B
:10073C007047C04680010120FF01000000002050DE
:10074C00F0B5C64600B5284C86B06368002B03D0C4
:10075C0006B080BCB846F0BD2449254806F0DAF84E
:10076C000300C61C0A33F2011B031343214A8025E4
:10077C0013408022D20513430393C0231B039846D6
:10078C0004931D4B206005930123070002220021D6
:10079C00174800936D020133029506F04DF9049B46
:1007AC00164A002113404246134311483A00049361
:1007BC0002AB06F095F9052003F054F8104B984263
:1007CC000BD8C82301210A4AD5501033D6501368D0
:1007DC008B430B4313606160BAE70A4903F0B8F925
:1007EC0085082D04EDE7C04680010120C49C002043
:1007FC0000002050FFFFFF9F63881144FFFF00C0E3
:10080C00FF083D0040420F0070B5114C6368002B8F
:10081C001CD0FF23802022680E49D51C6D021D437D
:10082C0040024B680342FCD1802040040D6188607B
:10083C0008498B680342FCD001200B6883430B6092
:10084C000448054906F0DEF80023636070BDC0461D
:10085C008001012000002050C49C002010B5022112
:10086C00082002F0DFFC0221092002F0DBFC002250
:10087C000121082002F0F8FC00220121092002F0DD
:10088C00F3FCE1210248490202F042FD10BDC046D2
:10089C0000800340102170B50C00414A93691C4044
:1008AC00194248D13F48013493691942FCD113686D
:1008BC0003559369194201D1202CF4D1002004F086
:1008CC0065FE00283CD00122374B00201A6004F052
:1008DC0043FF844253D822000020344904F022FF05
:1008EC00002004F0E1FE002004F068FE1F2806D86A
:1008FC00002004F063FE021E15D0102800D910222F
:10090C002B4C0020210004F065FE00280BD02100A8
:10091C0024182020224A93691842FCD10B7801310B
:10092C001360A142F7D1234D2B78DCB2002B19D1E7
:10093C000024200070BD002004F028FE00282BD1DC
:10094C00194C2368002BF3D0002004F011FF002178
:10095C00134802F0F3FD0023164A23601370164A65
:10096C001360E5E7154B1E6807F00CFB8642E0DAD6
:10097C00002300210A482B7002F0E0FDD8E700208C
:10098C0004F0EAFE844203D90B4A13680133136066
:10099C000028A8DD04009EE70122034B1A60A2E7A1
:1009AC00008003402F040120D804022030040120D1
:1009BC006C040120A0050220FCFC0020F4FC0020AB
:1009CC0070B507F0DFFA084C084D2060FFF762FFA6
:1009DC000028FBD12000296807F074FC0028F5D111
:1009EC0007F0D0FAF1E7C04660010120749F0020A7
:1009FC004A780B7812021A438B7870B50C00C978C0
:100A0C001B0413430906194300D10131214803F09B
:100A1C009FF8214D0600286807F012F90120312EAD
:100A2C0003D93221300003F093F81C4B18601C489A
:100A3C0002F034FD002004F09BFE002004F004FEC4
:100A4C006278237812021A43A378E1781B041343CB
:100A5C0009061943124802F05BFC6379012B16D08E
:100A6C00023B5A425341DBB2A1794A1F032A00D9F7
:100A7C00082120790022012401388442524108487F
:100A8C00013202F01DFD286807F040F970BD022309
:100A9C00EAE7C04600688909A0040120749F002081
:100AAC0000800340064B10B51868002901D1002ABC
:100ABC0002D007F02BF910BD07F0C2F8FBE7C046D7
:100ACC00A004012010B50C1E1AD0114B994207D16D
:100ADC000121104802F032FD00220F4B1A7010BD9C
:100AEC0001210C4802F02AFD01220B4B1A7007F071
:100AFC0049FAA3001B19094A9B001B181360EEE767
:100B0C000021044802F01AFD034B1C70E7E7C046B5
:100B1C00FFFF000000800340A0050220F4FC002031
:100B2C0070B5774C200003F053FD237818090100B1
:100B3C001A01D2B230319F2B00D90731714B1009F9
:100B4C00197000212170010030319F2A00D9D4E0A6
:100B5C00597061780D0928000A01D2B230309F29F2
:100B6C0000D9BFE00021987010096170010030318C
:100B7C009F2A00D9B4E0D970A1780D0928000A0188
:100B8C00D2B230309F2900D99FE000211871100992
:100B9C00A170010030319F2A00D994E05971E1789D
:100BAC000D0928000A01D2B230309F2900D97FE00C
:100BBC00002198711009E170010030319F2A00D991
:100BCC0074E0D97121790D0928000A01D2B23030B4
:100BDC009F2961D800211872100921710100303150
:100BEC009F2A57D8597261790D0928000A01D2B28F
:100BFC0030309F2944D8002198721009617101008E
:100C0C0030319F2A3AD8D972A1790D0928000A01EE
:100C1C00D2B230309F2927D8002118731009A17146
:100C2C00010030319F2A1DD85973E1790D09280034
:100C3C000A01D2B230309F290AD8002198731009CA
:100C4C00E171010037319F2A00D80739D97370BD83
:100C5C000021073098731009E171010037319F2A88
:100C6C00F4D8F2E70731DFE70021073018731009D9
:100C7C00A171010030319F2AD6D9F3E70731C2E7C1
:100C8C0000210730987210096171010030319F2AE0
:100C9C00B9D9F3E70731A5E700210730187210091D
:100CAC002171010030319F2A9CD9F3E7073188E785
:100CBC000021073098711009E170010030319F2A32
:100CCC0000D87EE7F2E7073168E70021073018719A
:100CDC001009A170010030319F2A00D85EE7F2E7BD
:100CEC00073148E700210730987010096170010046
:100CFC0030319F2A00D83EE7F2E7073128E7C0469B
:100D0C008C040120A8040220F8B5124F124D7B6808
:100D1C002A6804000E00934218D001335901C91AF5
:100D2C008900C91809010D4802F012FFFFF75CFC9D
:100D3C007B682B60002C0BD02500082C00D90825D3
:100D4C0031782800FFF76AFC641B0136002CF3D1C4
:100D5C00F8BDC04618A60020F8FC002040597307C7
:100D6C00F0B5C6461F4B204C1500984622685B68B0
:100D7C0007000E0000B593420DD001335901C91A7A
:100D8C008900C9180901194802F0E2FEFFF72CFC92
:100D9C0043465B6823603F22802314003B403C4069
:100DAC003A4200D14024002B0FD02E002500082CF5
:100DBC0000D908252800FFF76BFC641B3070013646
:100DCC00002CF3D180BCB846F0BD2500082C00D90E
:100DDC00082531782800FFF721FC641B0136002C14
:100DEC00F3D1EFE718A60020F8FC00204059730758
:100DFC00F8B5DE46574645464E46E0B5554D564F7E
:100E0C006B683A6804008B4693420CD0013359014D
:100E1C00C91A8900C9180901504802F099FEFFF758
:100E2C00E3FB6B683B6001231E00E1086708A00828
:100E3C001F4018400B4020213A18264092199A184E
:100E4C005201114072001143BF003943C0000143ED
:100E5C001B011943812308201943FFF7DFFB287E70
:100E6C000330FFF715FCFF230700287E1F40984630
:100E7C000741012F21D00226BB1EB3430AD02130DB
:100E8C00FFF706FCFFB23800F0BCBB46B246A946E1
:100E9C00A046F8BD6B7E002B2DD0264252D1FFF719
:100EAC00DBFB6B7E002BEDD000212020FFF7B6FB87
:100EBC0000210120FFF7B2FBE4E7A30723D4FFF7DF
:100ECC00CBFB5B461E6820203100FFF7A7FB3000F0
:100EDC0007F02EFF01000120FFF7A0FB01272406DD
:100EEC0002D51F4B9B6AAB60287B0028CBD000211E
:100EFC00FFF794FBC7E7FFF7AFFB6B7E002BC1D06E
:100F0C002642BFD1D0E72020FFF7C2FB814601204B
:100F1C00FFF7BEFB8246484602F0E2FD52464346CE
:100F2C00134043403B405A1E934106375B421F40DF
:100F3C005B460137002B01D04A461A60287EFFF72A
:100F4C008BFBCCE72120FFF7A3FB287EFFF784FB6C
:100F5C0098E7C04618A60020F8FC002040597307FB
:100F6C00004005407047C0467047C046002070479F
:100F7C00F0B54646D6464F46C0B54B7906000C0038
:100F8C00FF2B1FD18B79002B1CD1CB79002B19D1C6
:100F9C00802081464F461E491E4D0B5004300B508D
:100FAC00A846EB512B50892504307F3F4B550F54ED
:100FBC0041464B550F542379DD00ED1A0935ADB27E
:100FCC00954206D900252800E0BCBA46B146A84691
:100FDC00F0BDE37A21009A4652460F4B300009319E
:100FEC001A7004F059F94A4643469B5851461F4023
:100FFC00BA0142444023300004F090F92100074B21
:10100C00A27C300010311A7004F046F9DBE7C046C0
:10101C0000A7002074A600209B0502209A05022040
:10102C00F8B5CA090024012A14D0402B10D8802608
:10103C008422214DAB59AF580133833A1340BB4244
:10104C0019D18923EA541D4B0124186806F05EFE61
:10105C002000F8BD402BFBD884258826184C6359FA
:10106C0001336351A35D002B12D0144B012418687B
:10107C0006F04CFEECE7AB590133AB51AB591A40BF
:10108C0092014023521904F049F98923EC54ECE7FE
:10109C0067590C4B3A401B6892019BB2121904F031
:1010AC003DF980226359A25801339B1A5A4253418D
:1010BC00DBB2A355D9E7C04674A600200CFD002076
:1010CC0000A70020B8B90020F0B54E46DE464546D4
:1010DC005746E0B580255B4B85B000935A4B5B4C73
:1010EC0002935B4B5B4E01935B4B9B465B4B994670
:1010FC005B4B03938423E25863599A425CD084235C
:10110C009A465346E75801233B409B01E15C7E29FC
:10111C0013D17F2290464246E254635901379F42D5
:10112C0005D1306806F08CFD6359BB42F9D0012320
:10113C003B409B01E25C7E2AEDD053460127E158EF
:10114C004022394089010098611803F00BF853468E
:10115C005246E3580133A35089239846E35C002B95
:10116C005AD10199009800F057FE5B46186006F0C2
:10117C0001FF4B4651465A595B589A4220D04B4678
:10118C005A4601205B5912681840800112040199DB
:10119C00120C484402F0E6FF4B464A465B5949465E
:1011AC000133535188230022CA5406F0D7FF53460B
:1011BC00E25863599A42A4D1306806F041FD99E790
:1011CC004B4658595B4601271A6838408001120477
:1011DC000199120C484402F0C5FF4B464A465B5934
:1011EC000399013353514B4652469A585B463A4049
:1011FC001B6892019BB24A440978002004F08EF8D7
:10120C0006F0ACFF5346E35862599A4200D078E797
:10121C00306806F015FD6DE706F0ACFE6359002052
:10122C000133635163591F40029BBA011978A2180C
:10123C00402304F073F800234246A35406F08EFFBB
:10124C008FE7C04698A500209B05022074A60020BD
:10125C00D8A500200CFD0020B8B9002000A7002064
:10126C009A0502200123037000487047E49C00207B
:10127C00F0B54E46DE4657464546E0B503780400C9
:10128C001A00803AD2B20E008DB01F2A08D94A1C1F
:10129C0091460B701D2B0ED8C6499A008A5897465A
:1012AC0000F0FAFD040020000DB0F0BCBB46B246C5
:1012BC00A946A046F0BDFF23BF4C3370F3E7B31C27
:1012CC009946002373704278831C561E002A00D165
:1012DC009CE0012292463E320124934612E0FFF735
:1012EC0013FA4A4641462800FFF73AFD002E00D17A
:1012FC0052E143460134DB19E419721E002E00D171
:10130C004DE116005A1C1D7890465B465A4608273C
:10131C002B402A4201D00733DF086BB2002BDEDAF8
:10132C00FFF7D8F94A4641462800FFF719FD002E71
:10133C0000D13BE143460134B944BA44DDE7FF2315
:10134C00447873700134FE3B24041C439A4B9C4636
:10135C006444A8E7994B1B78012B00D19CE3FF2335
:10136C00974C73709FE7954F3B78012B00D1A7E307
:10137C00002303227370B370F37023799B0700D49E
:10138C0046E180248C4BE4029C46144364448AE777
:10139C008A4F431C827808933B7893460993C21C6E
:1013AC00012B00D14DE15B46002B01D100F05FFC1D
:1013BC000221102006E0204207D10132013B002B14
:1013CC0000D115E114782142F5D10532F6E74378C6
:1013DC007A4A7B4C1373C37881781B020B431382BC
:1013EC00437901791B020B435382002373705AE734
:1013FC000024724B1C70FFF707FA7470714C52E7A3
:10140C0043780024012B00D8B7E074706E4C4AE787
:10141C000123427893429B41DBB26C4C737042E7E0
:10142C004278F12A00D1B4E300D9FCE0042A00D1BF
:10143C00C0E33121F02A00D0B8E30123644CB17031
:10144C00737030E78278437812021A43C3780179BB
:10145C001B0413430906194300D1A4E25D4B9942C6
:10146C0000D9A2E2C81802F073FB431E5A1E934126
:10147C000022C01A514B5A7058600023564C73709E
:10148C0011E70322002443784C491A405B070132D0
:10149C00DB0F0A764B767470B8E7811C4078002815
:1014AC0000D1B1E00123C41DE408013424041C4321
:1014BC00414B9C466444FFF727FC00237370F2E613
:1014CC00FF23737063780230591E002B9ED00123CA
:1014DC003F252A0004782240254258D00732D208F2
:1014EC00013280189B180139F3D201221B041343DB
:1014FC00314A9C18D7E60023384CB3707370D2E68F
:10150C002379E2781B0213436279417812041A435F
:10151C00A37980781B0613431CD0314A934200D91F
:10152C001300304A946AC50700D59DE2850700D5A3
:10153C004AE3450701D500F016FC850601D500F0FD
:10154C001CFC40B2002805DAC90903D0916A091BBA
:10155C008B42FBD80023244C7370A4E6827843782A
:10156C0012021A4353019B1A9B009B18013BFDD19D
:10157C00002352E7FF24747048E701220F4B1A70C6
:10158C00FFF7DEF8194B1C60013474703EE709302C
:10159C00093301399DD2A8E7FFF7B6F8A9E65346FF
:1015AC0024041C43044B9C4664447CE6FFF7ACF8D3
:1015BC00C0E6C046FC9C00200100010018A60020DB
:1015CC0002000600020001000200020002000300FB
:1015DC00030002009FACB9030200050003000100E8
:1015EC00C0C62D000040054002000700F8FC00209A
:1015FC00089BD41A022324041C43CD4B9C46644400
:10160C0000237370B3704EE68020CA4C400052E742
:10161C00A378E47824021C43C54B01349C46A404F3
:10162C00144364443FE6FE2A00D1B0E2FF2A00D006
:10163C00BCE24023B3700023F3700233BE4C7370D2
:10164C0031E6F31C06930023BC4D2B705B46002B3C
:10165C0000D1B5E3002188460391390000234746A9
:10166C00B24688460793029502201578511C0591C5
:10167C00284200D1B3E04046048A002F31D0112318
:10168C00029E2B400192012B00D13EE10F0007E09E
:10169C00002C00D1AFE13378013C002B00D0AEE13F
:1016AC000E200BA9FFF7A4FB0228F1D03900030090
:1016BC000027019A0296012B00D08DE30B98069E11
:1016CC00040A7470040CB47034003070000E0434CE
:1016DC00F070002F04D06BB2002B00DA94E13B00C9
:1016EC0006944046048A01202840EE0600D4B5E05A
:1016FC000B789C4666464B781B0233438E78C97830
:10170C003604334309061943531D0593434601918F
:10171C005A8A002816D0029E049207E0002C00D1B1
:10172C00A5E03378013C002B00D0A0E0002128007C
:10173C00FFF75EFB0228F1D00300049A0296012801
:10174C0000D095E004971700029E43461C8A05E0E2
:10175C00002C33D03378013C002B2FD10BA928005F
:10176C00FFF746FB01000228F2D043460B9C5B6955
:10177C002340012800D028E3019A9A4200D117E1B6
:10178C00002F03D03378013F002BDED0049B47465B
:10179C003500984656461123022110209C465A4685
:1017AC00059C06E0184207D10134013A002A00D109
:1017BC0005E123781942F5D10534F6E7049A0300C4
:1017CC00474635000800904656460B9C7A690199AD
:1017DC0022409142E0D010230343DBB2DCE7002F20
:1017EC004CD14B7808781B020343887805320004EF
:1017FC001843CB7820211B0603430B93294264D05A
:10180C00414600274B610123039901310391029951
:10181C000978002900D015E201398C46E344594679
:10182C00002900D020E741465646B8460F00029DDD
:10183C000592012B00D1CFE1DBB20993039B089AEF
:10184C007370099BB370059B9C1A4A46069B240433
:10185C009B1A1C43364B9C46644424E500286FD0ED
:10186C00002F00D1DEE00A0000210791CCE7030035
:10187C0042463500B846564617008DE74346029E51
:10188C001C8A019504920D0005E0002CEFD03378F2
:10189C00013C002BEBD10E200BA9FFF7A9FA03009A
:1018AC000228F2D02900049A019D0296012800D04A
:1018BC0092E20B9B069C180A23706070180C1B0E8E
:1018CC00E370231DA07006938BE7434614001F8A18
:1018DC00029E07E0002F00D1D6E03378013F002BA9
:1018EC0000D0C9E028000BA9FFF782FA0228F1D03A
:1018FC00030022000296012800D081E26DB2002D77
:10190C0069DB0121002707917EE7049105E0002C9B
:10191C0058D03378013C002B54D128000BA9FFF789
:10192C0067FA0228F3D00300019A04990296C2E6E2
:10193C0001000100020022000400020098050220B0
:10194C00029E019105E0002C91D03378013C002BD4
:10195C008DD128000BA9FFF74BFA0228F3D0030016
:10196C0001990296012800D036E26DB2002D0BDAF7
:10197C0042469268069C100A22706070100C120E7F
:10198C00E270221DA07006920B9A069C100A22701F
:10199C006070100C120EE270221D06920A000021DB
:1019AC00A070079130E7FF2368E50122012061E573
:1019BC0000210300049F059A0296079124E76346D1
:1019CC00059436E74346B84635001F005646444654
:1019DC00A0460223E0E641468968069C080A21706D
:1019EC006070080C090EE17001210791211D002780
:1019FC00A070069108E7350047465646E8E73500E3
:101A0C00474656460024E3E743469B68180A707124
:101A1C00180CB0713000337108301B0EF371069046
:101A2C003B005EE60197029E0F0007E0002C00D100
:101A3C0016E13378013C002B00D00AE1002128008C
:101A4C00FFF7D6F90228F1D039000300019F029666
:101A5C00012800D0C0E16DB2002D00DAE1E00022D7
:101A6C00012707920A00CFE6002900D172E5916A9E
:101A7C00091B8B42FBD86DE500224746350003005D
:101A8C0056469046059487E641463500B846030015
:101A9C0056460F0005947FE6C37882781B021343E9
:101AAC0002790BA912041A43437900201B06134335
:101ABC000B93FFF79DF90023CA4C7370FFF7F3FBF0
:101ACC000022C94D81782A70C27812020A43019211
:101ADC0000D12FE10279924651463A8A890700D506
:101AEC00C7E0431D994600232A009B460BAB554685
:101AFC008046B2461C00160002974B461A785B785B
:101B0C001B0213434A46927812041A434B46DB7865
:101B1C001B0613430B9304239C46029BE1441F8A30
:101B2C0005E0002F30D03378013F002B2CD1210061
:101B3C002800FFF75DF90228F3D0012824D10123F6
:101B4C009C46019BE344013B0193002BD5D1029FA2
:101B5C003500444656463F8A06E0002F0AD02B78C3
:101B6C00013F002B00D025E100210E20FFF740F9AA
:101B7C000228F2D05B460322190ADDB2C9B2757095
:101B8C00B170F070FFF7F9FB44465646F2E70221BC
:101B9C0053E44023B3700233F370333B33710023AF
:101BAC0073710433914C7370FFF77DFB904C737021
:101BBC00FFF779FB06228F49B01C02F0D3FA0623FB
:101BCC008D4C7370FFF76FFB490800D1C2E4916A2A
:101BDC00091B8B42FBD8BDE44346002B00D1AEE081
:101BEC000BAB3C8A1F0007E0002C00D1DFE02B7808
:101BFC00013C002B00D0DAE039000E20FFF7F8F89A
:101C0C000228F1D0012800D0ABE00B9B06991A0AF0
:101C1C000B704A701A0C1B0ECB700B1D8A7006933E
:101C2C000CE642469268069C100A22706070100CFA
:101C3C00120EE27000220792221D069201270A0062
:101C4C00A070E1E541465646B846029D0F0005924C
:101C5C00A2E5019A474635000300904656469BE59F
:101C6C0000224746350003005646904694E5634CE7
:101C7C00C6E451460B4216D083461400984607E042
:101C8C00002C00D18EE02B78013C002B00D089E099
:101C9C0000215046FFF7ACF80228F1D043465C46D1
:101CAC00012800D0B3E0002083460BA8D846321D93
:101CBC00B34603972E005746A2460400019905939C
:101CCC0001390192002930D0039B1D8A04910292A4
:101CDC0005E0002D1FD03378013D002B1BD12100D6
:101CEC003800FFF785F80228F3D00499029A0128EE
:101CFC0012D10B98019B050A10705570050C000E43
:101D0C009570D87001239C460432E044481E00298B
:101D1C003DD00100D5E7029A4346190ADDB24B4685
:101D2C0054465E46C9B2D21A29E701233B42CBD0B6
:101D3C000E27C9E703220020002100251FE7079B7F
:101D4C00002B00D17AE53C8A05E0002C2FD02B78B3
:101D5C00013C002B2BD100210E20FFF749F8022863
:101D6C00F3D009906AE5890801D1FFF7F3FB916A7A
:101D7C00091B8B42FBD8FFF7EDFB490901D1FFF79B
:101D8C00E9FB916A091B8B42FBD8FFF7E3FB414649
:101D9C004846059BCDB2090A121A54465E461800F5
:101DAC00C9B2ECE600215C4603220D00E7E60223F3
:101DBC00099343E55B46DDB21B0A0322D9B2DEE68A
:101DCC00002305920993039338E5049A474635009E
:101DDC00030090465646F9E442465646B846029DE4
:101DEC001700D9E402000600980502200600020044
:101DFC0002000200FC99002008000200030003000E
:101E0C000022474656469046029D0594C4E40021A4
:101E1C0003220D00B3E6C046F8B503787F2B04D03F
:101E2C00FFF726FA05002800F8BD0B7044780A4D20
:101E3C00861C8F1C4C70002CF5D039003000FFF73D
:101E4C0017FA030C2D180004000C013CF6183F186F
:101E5C00002CF2D1E7E7C046020002003D210D4BF9
:101E6C0010B5596000211973002264211A80196180
:101E7C005A61022001325E391A8301F0D3F906212E
:101E8C00032001F0CFF900220121032001F0ECF92D
:101E9C0010BDC04618A60020037801480B7070478F
:101EAC0001000100024B9C466144890001607047AF
:101EBC004000003410B5040000F028FD01002000A3
:101ECC00FFF7F0FF01235B426360BFF35F8F10BD30
:101EDC0010B5040000F01AFD01002000FFF7E2FF2E
:101EEC0001235B42636000232372BFF35F8F10BD3D
:101EFC0010B50400012000F015FD034BC3189B0026
:101F0C002360BFF35F8F10BD4000003483680B4823
:101F1C0010B58446614462441201090159189B189A
:101F2C005C684A680120944201D802D00020C0B2FB
:101F3C0010BD1A680B689A42F9D8F7E7FFFFFF0F3C
:101F4C00074810B50268EFF3108172B61368002BC6
:101F5C00FCD0BFF35F8F04F071FF0020002110BD97
:101F6C0054040120F8B5574645464E46DE46E0B5CA
:101F7C0098460CAB1C780DAB1B78070091469A4623
:101F8C000568002C59D1AC7B002C3BD0660029682D
:101F9C003619033E89194B78AB73002B00D1EB73C8
:101FAC0000238B704B700B702D4BE218BB68120129
:101FBC009B184A461A6042465A600A9A9A600B9AD3
:101FCC00DA6000238B704B700B706B7B9B46002B85
:101FDC0026D022006B685946A86898475B465B0080
:101FEC005B442A68033B002812D058469619B070FF
:101FFC00D118D35C002B00D073705B460C706B73E4
:10200C005C450ED0F0BCBB46B246A946A046F8BD16
:10201C00D3189C709119925D002A1CD15B460B70F1
:10202C006C734A464346387D00F048FB051E0AD1C6
:10203C000E9B002BE6D01D70E4E76600296836196C
:10204C00033E8919B0E75346002BF1D121003868C3
:10205C0001F0ACF8ECE75A705B460B706C73E0E780
:10206C00FFFFFF0FF0B5DE4657464E4645460023B0
:10207C00E0B58BB00893684B8200D45800239B4684
:10208C00099000F097FA02000B006068EFF3108AD9
:10209C0072B6564601680029FCD0B246BFF35F8F7A
:1020AC0021684F7B8C46002F2ED0A5685B49A94632
:1020BC0079180901894449460868496805000E00E9
:1020CC00AD1A9E41002E5FDD02000B00099800F056
:1020DC00F5FA002300229946002306920793002369
:1020EC0098466368BFF35F8F5A461A608AF310886C
:1020FC004346002B12D10028C3D10BB0F0BCBB4619
:10210C00B246A946A046F0BD002300229946002302
:10211C0006920793002300209846E2E7089B494665
:10212C0018023843C047626805000E00EFF3108AAE
:10213C0072B61368002BFCD0BFF35F8F002E41DB0F
:10214C002B00334302D02369002B56D12368D97B53
:10215C00002905D01A68480041185218033A5770E4
:10216C009A7B002A00D19F73DF73E268013FD35D35
:10217C000133D3555B4623616368BFF35F8F5A46C7
:10218C001A608AF310887CE7002E02D1002D00D053
:10219C009AE70021604600F087FF4B461A685B689F
:1021AC00069207934B469B6898464B46DB689946CC
:1021BC00E368DB19013B1B7808931B020343236183
:1021CC0000208EE72369002BC0D0069A079B802144
:1021DC00521BB34109068B4202D30122104B5242CF
:1021EC00002104910131039149460191414620009F
:1021FC0002970091FFF7B6FEBCE700F0DBF92A006E
:10220C00330012184B41802109068B42E8D301227E
:10221C00034B5242E4E7C04670010120FFFFFF0F61
:10222C00FFFFFF7F10B5144C6368002B04D00A210C
:10223C001248FFF737FE10BD2300114A1021206809
:10224C0000F04EFE032000F0A9F9032000F09EFAE6
:10225C0003200C4900F0ECF900F058FB0A4B9C46AB
:10226C0003232375D0231B061B6860446375074B3F
:10227C0080006060DC60DAE7789F00205404012065
:10228C00BD1C0020151E00204000003470010120F0
:10229C0000487047789F0020F0B557464E4645469B
:1022AC00DE46E0B585B0019310AB1B7806000393B6
:1022BC0000239A46984600927268EFF3108B72B620
:1022CC001368002BFCD0BFF35F8F3568AC7B002C00
:1022DC0000D16EE067002B683F19033FDB195A7879
:1022EC00AA73002A00D1EA73484AA118B2680901FE
:1022FC00521800980199106051600E9991600F99D5
:10230C00D16042469A705A701A706B7B9946002BBA
:10231C0000D16BE022006B684946A86898474B4691
:10232C005B004B442A68033B002856D04846D7191B
:10233C00B870D118D35C002B00D07B704B460C705E
:10234C006B734C4553D0F3681B19013B18787368B9
:10235C00BFF35F8F42461A608BF310885346002BF5
:10236C0008D10002204305B0F0BCBB46B246A946DA
:10237C00A046F0BD039B002B46D00E9B00200F996E
:10238C00984703000B433FD004000D1E1ADA009A45
:10239C00019B121BAB4100920193802212069342C7
:1023AC0004D301231A4C5B4200930194039B9A467D
:1023BC0082E77368BFF35F8F1C608BF3108801207A
:1023CC004042D0E700F0F6F880220019694112066D
:1023DC00009001919142E9D3E3E7D3189C70D11995
:1023EC00D25D002A00D05A704B460B706C73307D56
:1023FC00009A019B00F062F982460028A3D02100CC
:10240C00306800F0D3FE9EE70020ACE7FFFFFF0F23
:10241C00FFFFFF7FF0B5EFF30583CE46474680B54F
:10242C0005000C0085B0002B12D02A4A0020536AFC
:10243C00A34203D3926A0130AA4204D305B0C0BCB4
:10244C00B946B046F0BD1B1B5A1E9341D8B2F5E7F6
:10245C00214E02930193214B0200009330000B009C
:10246C00FFF71AFF031EE0DD20BF7168EFF3108742
:10247C0072B60A68002AFCD0BFF35F8FDAB29446BA
:10248C00FF2230681A40417B61450FD001688946B4
:10249C0051008846494690444144033989780029C3
:1024AC0004D13269934209D1316107E0F1681B0A0A
:1024BC008A18013A1278DBB29A4207D07368BFF3DC
:1024CC005F8F00221A6087F31088AEE7614600F038
:1024DC006DFEF3E700400540789F0020F11C0020C2
:1024EC00F0B5EFF30582D6464F4646461000C0B510
:1024FC001038EFF3108872B6214C2368002BFCD0F7
:10250C00BFF35F8F0123190081401E4D1F006963CB
:10251C00AA461D4D29601D4D2E78AC463500C54090
:10252C002F402B4215D053465F6A194B8500EB5850
:10253C009F4218D36246174B8E43EB581670BFF36D
:10254C005F8F0022226088F31088002B06D09847FA
:10255C0004E0BFF35F8F276088F31088E0BCBA46B5
:10256C00B146A846F0BD0C4B92009C4662441368E1
:10257C001360BFF35F8F0023236088F31088EDE7AF
:10258C00280100D0004005403C700540A105022008
:10259C0058040120E4FB0020D03F054010B5034B4C
:1025AC0001001800024A00F033F910BD9E0502200C
:1025BC00049A0020034B596A0A00986A596A8A42A5
:1025CC00FAD170470040054070B504000D00174A61
:1025DC00536A1900966A536A8B42FAD1300019007B
:1025EC0024184D41AB4216D813D0104B2A005B6A0D
:1025FC009D4203D90D494B6A9342FCD3934207D1B8
:10260C000A4A02E0516A994202D1916AA142F9D375
:10261C0070BDA642E9D9054B5B6A1C005A1CEFD071
:10262C00012201246442E5175242E3E700400540D1
:10263C0070B504000D00EFF3108672B61A4A1368D9
:10264C00002BFCD0BFF35F8F002D1BD0200000F0BF
:10265C008DF9164981420AD0200000F08FF9012132
:10266C00200000F071F90123A340114A1360114BB3
:10267C00A400E550BFF35F8F00220B4B1A6086F36A
:10268C00108870BD0121A1400A4BA200D5500A4B05
:10269C0020001A788A4305491A7000F093FA002139
:1026AC00200000F051F9E5E7280100D0912200202C
:1026BC0038600540E4FB0020A1050220F0B54F4630
:1026CC00D6464646C0B507002B4C616A0D00A66A7B
:1026DC00616AA942FAD18B4208D805D00120E0BC2E
:1026EC00BA46B146A846F0BDB242F7D9EFF3108A0C
:1026FC0072B6224801680029FCD0BFF35F8F012518
:10270C00BD401F491C4C8846097889462943C9B2EB
:10271C008C46414660460870391D890065630A5134
:10272C001849B8004350216A0020294219D0616A27
:10273C000800A66A616A8142FAD18B4219D801D18C
:10274C00B24216D8CC450BD00B4B1F221D625D63D9
:10275C0001233A4093400C4A136043464A461A7090
:10276C000120BFF35F8F0022044B1A608AF310889C
:10277C00B5E70020F5E7C04600400540280100D031
:10278C00A10502205804012080E200E0EFF3108C38
:10279C0072B60A490B68002BFCD0BFF35F8F012384
:1027AC008340074A0748136202789A430270BFF3CA
:1027BC005F8F00230B608CF310887047280100D0CA
:1027CC0000400540A1050220024B18688007C00F8D
:1027DC007047C04600C006408023DB051868000F18
:1027EC007047C046EFF3108072B6034A1368002B93
:1027FC00FCD0BFF35F8F70472C0100D0BFF35F8F0D
:10280C000022024B1A6080F3108870472C0100D014
:10281C0070B5EFF3108C72B60D4D2B68002BFCD0FD
:10282C00BFF35F8F0724CB08C618C05C01230C4094
:10283C00A3401C000440034207D118433070BFF37F
:10284C005F8F2C608CF3108870BD100001F0FCF8C9
:10285C002C0100D0F8B54746CE46884680B5EFF33C
:10286C00108C72B6214D2C68002CFCD0BFF35F8FFE
:10287C009A422CD8D4080727055D06190124174065
:10288C00BC402C421FD007210127894609E0D408FF
:10289C00055D06194C4639001440A1400C00294234
:1028AC0011D001329342F2D201204042BFF35F8F2C
:1028BC0000220E4B1A608CF3108800280FDBC0BC72
:1028CC00B946B046F8BD254310003570EEE7BFF3AE
:1028DC005F8F00232B608CF310880120404243460D
:1028EC00002BECD0089801F0AFF8C0462C0100D0BA
:1028FC000021044B044ABFF35F8F02C39342FAD109
:10290C007047C046000100D0800100D0044A107806
:10291C00431CDBB2172B00D9102313707047C04631
:10292C00A09F002010B5064B064C82B0010000930E
:10293C0018221F232000FFF78DFF02B010BDC046E8
:10294C00289A002008FD002001238340002904D090
:10295C00034A1360034A13607047034A1360FBE792
:10296C0080E200E000E100E080E100E0024B10308A
:10297C009B688000C058704700ED00E070B50D00FA
:10298C00EFF3108672B60F4A1368002BFCD0BFF31E
:10299C005F8F0D4B10309B6884001B590B4A934280
:1029AC0003D09D4201D001F06DF8074B9B681D517F
:1029BC00BFF35F8FBFF35F8F0022024B1A6086F369
:1029CC00108870BD240100D000ED00E0CD01001096
:1029DC00F0B557464E46DE464546E0B585B0060096
:1029EC0000911700EFF3108B72B66A4A1368002B34
:1029FC00FCD0BFF35F8F0025674B5D579A46002DC7
:102A0C0000DAA9E06B00654C01935B199B009846BA
:102A1C00A146C1444B4652469B7910361370604B0D
:102A2C00B6009B6899590B1B2F2B33D95D4B9942E0
:102A3C0000D0ACE0019B42469C465B4B6544AD002C
:102A4C0063535A4B0232A218043B9B1A1B05584A7B
:102A5C005B0D651913436B80564B0121AB80FF2333
:102A6C00AB71009BEF71AB604B460B4319004C4BA9
:102A7C009B689951BFF35F8FBFF35F8F0022454B6B
:102A8C001A608BF3108805B0F0BCBB46B246A94661
:102A9C00A046F0BD01200A008243D3798C46BB428C
:102AAC0031D84546130044491B1B5B415943090D62
:102ABC003D4B63533D4B02356519043B5B1B1B05BA
:102ACC003B4D5B0D2B43AA464D466B800425AC4613
:102ADC005546E044131F44441B1B1B055B0D1D4353
:102AEC004B46997100999D8099604946DF71334B33
:102AFC0001431360BBE75800C01880002018C1794F
:102B0C00B9422FD902000623D356002BF3DA0293D5
:102B1C002B4B61460393131D9A4604235B429C4640
:102B2C00E14450464B461B1A1B055B0D9C46204B43
:102B3C00957198466346404603439380019B5A190E
:102B4C009200039BA418A380029B1C4AA371009BB8
:102B5C002260E771A3608AE700F094FF00255346DA
:102B6C005D574FE7908802934005131D9A46031555
:102B7C0061469C464046D444634604302018181ADB
:102B8C00E0230005400D1B0218430390C5E700F03D
:102B9C0079FF4FE7240100D09F050220A49F00205D
:102BAC0000ED00E0CD01001000A1FFFFD49F00203C
:102BBC0000E0FFFF01BDFFFFAAAA0000014880470B
:102BCC0001BD0000F0B5DE4657464E464546E0B521
:102BDC000C0083B0EFF3108872B65D4A1368002BBB
:102BEC00FCD0BFF35F8F5B4B5B499A6803001033DB
:102BFC009F00D5598D4239D0A5424AD0574EAA1BB9
:102C0C002F2A33D801229246824091464846544A94
:102C1C001268104001904846524A1060BFF35F8F13
:102C2C00EFF305829346002A35D0934201D000F091
:102C3C0029FF2A0053469A439068844208D175E0D4
:102C4C004B005B189B00F3189868A04234D01A0014
:102C5C00062151560029F3DA844253D0019B002BF4
:102C6C0026D04A46404B1A603D4B1A60394B9B6844
:102C7C00DD51BFF35F8FBFF35F8F0022344B1A60BF
:102C8C0088F3108803B0F0BCBB46B246A946A046F8
:102C9C00F0BD0D00EAE72A0053469A43906884423F
:102CAC00D6D1062010561300002809DA0D0031E0A9
:102CBC004A462C4B1A60D9E706201856002822DB0E
:102CCC0042001118890074188A46A1689960E1794C
:102CDC00D971062161569971002925DBA488F11A56
:102CEC006405241554440919E0240905490D2402EE
:102CFC002143998013181D4A9B001178F318997180
:102D0C001070ABE713005946002914D1FF319171B3
:102D1C001749918015490A789A71164A9B1B5B4199
:102D2C005A43120D0A7099E71349E2E70620105630
:102D3C0013000028C4DA114A1149D21A083A500279
:102D4C00400D014399800F4952080A43DA8085E708
:102D5C00240100D000ED00E0CD010010A49F002064
:102D6C0000E100E080E100E080E200E09F0502204D
:102D7C0001BDFFFFAAAA000001BD0000DE9F0020DC
:102D8C0000F0FFFF00F8FFFF032310B50400074A13
:102D9C0018409446C0009C43FC3383406444226832
:102DAC0081409A4313000B43236010BD00E400E004
:102DBC0070B5EFF3058101240443EFF3108C72B668
:102DCC00214A1368002BFCD0BFF35F8F1F4B05000B
:102DDC001F4AED1A6D416A43120D1E4D8900AE68F3
:102DEC0052B27658A6421CD00621595691421CD09C
:102DFC0012215956914222D01E215956914220D06F
:102E0C002A2159560324914210D0134B19781A7069
:102E1C008171BFF35F8F00220B4B1A608CF310880B
:102E2C0070BDAB680D4C5C50EFE7002461000919D4
:102E3C0089005B18FF21997109499980E5E7012404
:102E4C00F4E70224F2E7C046240100D0A49F00203E
:102E5C00AAAA000000ED00E09F050220CD010010A1
:102E6C0001BDFFFF054B064A1360064A1360536011
:102E7C009360D3601361536193617047808080804D
:102E8C0000E400E004E400E070B506000D0014005E
:102E9C0000291DD0002A12D0736880689847620000
:102EAC006B0012195B193168033A033B002808D0F8
:102EBC008A189570C818CB5C002B0BD104702800B5
:102ECC0070BDCB189C7088188A5C002A05D10570DF
:102EDC002000F5E753700470F1E75A700570F7E7BE
:102EEC0010B583600023CCB243730133426004738A
:102EFC008373C4730068421C012C05D90133DBB207
:102F0C00137003329C42F9D1FF230B405A00D318A3
:102F1C00C01800230338437010BDC04670B50500BF
:102F2C000C1E07D0630001681B19033BCB185A78A1
:102F3C00002A01D1200070BD5000801803380918F8
:102F4C0000204E784870210058702800FFF79CFF35
:102F5C00310004002800FFF7E1FF0600002C20D010
:102F6C000028E7D0320021006B68A86898477200EF
:102F7C00630092191B192968033A033B002808D0F7
:102F8C008A189470C818CB5C002B00D05370067054
:102F9C00D0E7CB189E7088188A5C002A00D05A7033
:102FAC0004703400C6E7C046F0B557464546DE46C9
:102FBC004E46E0B50D006F0001687F19033F040019
:102FCC00C85D83B00192CA19002850D043001B1869
:102FDC00033BCB185E78B446002E1AD1019E002E0E
:102FEC0042D0E67B002E04D073009B19CB18033B18
:102FFC005D70A37B002B00D1A573E57300282FD146
:10300C000023537003B0F0BCBB46B246A946A046A1
:10301C00F0BD72006244033A8A1851788846002148
:10302C00517089465970320001002000FFF72CFFC7
:10303C0043468246002B07D05B0021684344033B88
:10304C00CB185A78002A16D1424651462000FFF779
:10305C001BFF2168019BCA19002BC2D10028CFD0BD
:10306C0043001B18033BCB1800219970C8E7019B48
:10307C00002BB6D1C4E750008018033809184878E3
:10308C00834648464870587041462000FFF7FCFEC6
:10309C00594680462000FFF741FF414602002000C0
:1030AC00FFF7F2FE8046CFE7F0B557464546DE46C1
:1030BC004E46E0B583B00191457B04006F0000687B
:1030CC007F19033FC15DC219002952D04B005B1818
:1030DC00033BC3185E78B446002E1CD1019E002E13
:1030EC0044D0E67B002E04D073009B19C318033B1D
:1030FC005D70A37B002B00D1A573E573002931D142
:10310C00002328005370617303B0F0BCBB46B24679
:10311C00A946A046F0BD72006244033A821850786A
:10312C008046002050708146587032002000FFF716
:10313C00ABFE43468246002B07D05B00216843441C
:10314C00033BCB185A78002A17D14246514620002F
:10315C00FFF79AFE019B01002068C219002BC0D119
:10316C000029CDD04B005B18033BC318002098708E
:10317C00C6E7019B002BB4D1C2E75000801803387E
:10318C0009184878834648464870587041462000D4
:10319C00FFF77AFE594680462000FFF7BFFE4146F6
:1031AC0002002000FFF770FE8046CEE770B50500E8
:1031BC0000292CD0437B8B422ED04C000068641825
:1031CC00033C0419A278002A21D053009B18033B1E
:1031DC00C25CC6188A4202D11BE0002A08D05300F8
:1031EC009B18033BC3185A788A42F6D162785A70FE
:1031FC00002301222800A3706370FFF7D5FE697BC2
:10320C0002002800FFF740FE6873012000E0002058
:10321C0070BD63783370EBE701221900FFF7C4FE31
:10322C00F2E7C046094A10B5944640248300634433
:10323C001A68C0006240803414408022520113434B
:10324C001C60034B9C466044416010BD04C00140AF
:10325C0000400140034BC0009C46604443681F2063
:10326C001840704700400140074B80009C4660446A
:10327C000368C90092000A435A400C231A40802369
:10328C005B0103431A60704704C00140074BC00048
:10329C009C466044036809045940C0239B021940B2
:1032AC0080235B01034319607047C0460440014012
:1032BC00074BC0009C466044036809035940C02377
:1032CC009B01194080235B01034319607047C04682
:1032DC00044001400123D022834012069362936183
:1032EC00094A40219446830063441A68C0004A404E
:1032FC00803111408022520113431960034B9C46CC
:10330C00052360444360704704C001400040014005
:10331C00F8B5CE464746040080B506200D0000F0F7
:10332C00A1FA061E53D0534B5349E3185A1E93412E
:10333C008022120494465B429B0D504A9B056344C9
:10334C0013604F4A136018008A689043FBD1494BB5
:10335C004C4AE31859424B4180215B00490006203E
:10336C00995200F07FFA2900C00000F0F1FBC3096C
:10337C0032D14022012190466162A362266BF30791
:10338C0036D427008025E36A00232C376D013D439A
:10339C002B600620266300F065FA4146800000F0A1
:1033AC00D7FB236B06009846DB073BD46023E26A0D
:1033BC005A400E3313402B60434623638023102264
:1033CC009B013B431A60304B23630323A3643000FF
:1033DC00C0BCB946B046F8BD2C4A93423FD9002335
:1033EC002B492C4A6162A362266B9046F307C8D521
:1033FC002200C02330329B011343234A06201A605B
:10340C00656AA36AAD01ED1800F02CFA224900F0B0
:10341C009FFBAD020100280000F09AFB0021FFF792
:10342C00D3F8AEE72200C02330329B011343164A77
:10343C0006201A60636AA26A9B019946914400F0C7
:10344C0011FA4B4614499B02994600F081FB01008E
:10345C00484600F07DFB0021FFF7B6F8A6E77F2277
:10346C009901884602400132520819009044130019
:10347C0082E7C0460080FCBF00C0004000E0004076
:10348C0000F000409404012001030000FEFF000046
:10349C00FFFF0000C0FF3F004E0E0000064BC3189C
:1034AC005A1E93418022120494465B429B0D034AA0
:1034BC009B056344136070470080FCBF00E0004034
:1034CC000539013AF8B5D2004C0105001443002B24
:1034DC0006D0013B5A4253419B00234302241C4318
:1034EC002E6BF3070BD46E22EB6A290063401A4053
:1034FC0080232C315B010B431A602E63F8BD2A002C
:10350C00C02330329B0113430A4A06201A606F6AAB
:10351C00AB6ABF01FF1800F0A5F9074900F018FBD2
:10352C00BF020100380000F013FB0021FFF74CF83C
:10353C00D9E7C046010300004E0E0000F8B5056B3C
:10354C0004000E00EB070BD40121E36A2200734048
:10355C00194080232C325B01134319602563F8BD9D
:10356C000200C02330329B0113430A4A1A60476A97
:10357C00836ABF010620FF1800F074F9064900F0B9
:10358C00E7FABF020100380000F0E2FA0021FFF771
:10359C001BF8D9E7010300004E0E000010B50C20FB
:1035AC0082B000F0B7F9FFF70FF9002810D08B4B61
:1035BC008B488B498B4A186059609860D9601861A8
:1035CC0059619861D961186259625A6202B010BD92
:1035DC00854CA06700F0A6F90122844B1A60636C3D
:1035EC00012BFCD10322824B1A607F4A936B012B77
:1035FC00FCD1013301217F4A7F480093043300F052
:10360C0037F905237D4A009301217D4800F030F9FC
:10361C007C4B5A68FF2A02D8802252005A608022C2
:10362C00734B6E4C12011A602169002907D0606936
:10363C0000F08EFA013043001B18033BFDD2E02250
:10364C00704B714819680A40026002221968514097
:10365C0001320A40042102609A681142FCD0802198
:10366C006A4A09011160802252005A60684B23613A
:10367C00684B5968FF2900D85A60032201215B4B23
:10368C001A60644A93681942FCD0E0231068034026
:10369C0061480360126803234A40022113405D4ACB
:1036AC00036093681942FCD080215C4B09011960BE
:1036BC0080215B4B4900516063615A4B5A68FF2A69
:1036CC0000D859608022584B12011A60E169002918
:1036DC0007D0606900F03CFA013043001B18033B33
:1036EC00FDD2E0234F4A11680B4050490B608021FA
:1036FC004F4B090119608021394B49005160E3613E
:10370C004C4B5A68FF2A00D8596080224A4B120150
:10371C001A60216A002907D0606900F019FA01309B
:10372C0043001B18033BFDD2E023424A11680B40B7
:10373C0042490B608021424B0901196080235B00D8
:10374C0053608022264BD20223623E4B5968914231
:10375C0000D25A6080223C4B12011A60616A002927
:10376C0007D0606900F0F4F9013043001B18033BEB
:10377C00FDD2E023334A11680B4034490B608021A1
:10378C00334B090119608023DB025360154B6362D4
:10379C00304B5A68FF2A02D8802252005A6080228D
:1037AC002D4B12011A60A169002907D0606900F045
:1037BC00CFF9013043001B18033BFDD2E023254A0F
:1037CC0011680B4025490B608021254B09011960BC
:1037DC0080235B005360124BA361F7E680A00020AE
:1037EC00006CDC021BB70000008000403CB00040C5
:1037FC0030B00040002F685900800240008C864792
:10380C0000C00240308000403090004030A00040AA
:10381C00001BB7003C8000403C9000403CA00040A6
:10382C00405973075480004054B0004054900040FD
:10383C0054A000406080004060B0004060900040A8
:10384C0060A000406C8000406CB000406C90004068
:10385C006CA000404880004048B0004048900040B8
:10386C0048A00040014B8000C058704780A0002049
:10387C00F8B5040022481E0017000D0000F068F98E
:10388C000100380000F064F9069B36041B031E434C
:10389C002368002B22DB1B4B1B49E3185A1E934158
:1038AC008022920194465B421B0B184A1B03634413
:1038BC001360174A13601F008A689743FBD1C0221C
:1038CC00231D92011A4321232560A06013602368F5
:1038DC00002BFCDA0823E6601360F8BD3F23226856
:1038EC001340AB42D7D1A3681B051B0D8342D2D129
:1038FC00EE22E368D2021340B342CCD1EDE7C046CE
:10390C00001BB7000040FDBF00C0004000E00040BD
:10391C0000F000408023024A9B000343D3627047AF
:10392C0000800540AA23064A1B0113602F2305497A
:10393C00D360054B19605368002BFCDA7047C04606
:10394C000040024000B0FA00006002402C4B2D4AAF
:10395C0070B51A602C4A2D4B2D491A6014008B68D7
:10396C009C43FBD12B4D2C4EB54208D2013E761B0D
:10397C00B60808CD984723000134B342F9D1FFF7BC
:10398C000DFE264A214B1A60214A9368DB43DB016A
:10399C00DD09002BF9D14022214B224C224E9A6793
:1039AC005A671A67DA66B44208D223682000002BE3
:1039BC0020D00C34FEF78CFAB442F6D31B4C1C4EC0
:1039CC00C022B168200000F0CDFBB460FEF790FF80
:1039DC00FFF748FAFEF726FC164C174EB44208D2F5
:1039EC00013E361BB60808CC98472B0001359E4289
:1039FC00F9D170BD0834FEF75DFAB442D5D3DDE7DA
:103A0C0000E00040BFCDFBFEFE7F3C0000F000401C
:103A1C0000C0004060A0002070A00020FFFFFF014C
:103A2C0000F0014050A0002060A000200000002009
:103A3C0000ED00E070A0002080A0002000BEFDE79B
:103A4C0010B5FFF7FBFFC0460FB400B5084883B0B4
:103A5C0000F024FC049B002B07D005A91800019151
:103A6C0000F01EF8034800F019FC0120FFF7E6FFF8
:103A7C00449A0020549A002010B50148FFF7E4FF47
:103A8C00589A002010B50148FFF7DEFF689A002015
:103A9C0010B5002800D110BD00F0B4FBFBE7C04608
:103AAC0010B5094A0300146884B0002C08D0012218
:103ABC0000910648524203A9A047012004B010BD52
:103ACC0000F0ECFB0020F9E76401012041380020F4
:103ADC0001480421014B1847F09F0020BD380020FD
:103AEC00014B1B6818470000F09F0020142310B5F1
:103AFC000100188804331B88984710BD162310B595
:103B0C000100188802331B88984710BDF8B547464A
:103B1C00CE4680B50F1E19D01423994604330400E9
:103B2C000025012698464B461888434621681B8879
:103B3C00984701C4431E9841013540420640AF42AC
:103B4C00F1D13000C0BCB946B046F8BD0126F8E74B
:103B5C00114A936F9B0813D210665166002905D049
:103B6C00FFE7FFE7FFE7516F106F704704B50028C0
:103B7C0001D00020C04305F0D9F8002104BDC04697
:103B8C00F0B5146E556E576F166FFFF7E5FF1466A0
:103B9C00556657671667F0BD000000D094464A4A38
:103BAC00926F9208624601D228E0C046F0B5464EAC
:103BBC00346E756E776F366F00F020F89446424A7B
:103BCC0014665566576716676246F0BD94463E4AC2
:103BDC00926F9208624601D254E0C046F0B53A4E5C
:103BEC00346E756E776F366F00F04CF89446364A2B
:103BFC0014665566576716676246F0BD002B24DBCA
:103C0C0011D000293EDA00B5C943404200D1013140
:103C1C0000F038F8C943404200D10131DB43524235
:103C2C0000D1013300BD002AEBD1002801D10029BD
:103C3C0005D00020C90FC90701D1C043410800B508
:103C4C0005F074F80022002300BD00B500290ADB42
:103C5C00DB43524200D1013300F014F8C943404217
:103C6C0000D1013100BDC943404200D10131DB43D9
:103C7C00524200D1013300F005F8DB43524200D12F
:103C8C00013300BD002923D1002B18D1002A0CD000
:103C9C00BC460D4F38667A6600210023FFE7FFE72C
:103CAC00FFE77A6F386F67467047002801D00748E6
:103CBC00010000B505F03AF80022002300BD020017
:103CCC000B00002000217047000000D0FFFFFFFF19
:103CDC00002B00D0BFE0130C28D1002AE7D080B411
:103CEC00114F39667A66FFE7FFE730B4040C7B6F3F
:103CFC00396F1B0423433B667A66FFE7FFE7FFE758
:103D0C00C04684B27B6F3D6F1B0423433B667A66CF
:103D1C00FFE7FFE7C04600232C042D0C7A6F386FA9
:103D2C0000196941B0BC7047000000D0F0B5944652
:103D3C000025140E01D112020835140F01D1120105
:103D4C000435940F01D192000235D40F01D15200E9
:103D5C000135D40B0134254F7C66254C3C660E0C8A
:103D6C0093B2FFE7FFE7FFE73C6F6643360C770340
:103D7C00BE467343DF0B5B04C01AB941130C73438B
:103D8C00DB18C91ACE086643360CB64493B273439B
:103D9C001F0F1B01C01AB941130C73431F0B1B05DA
:103DAC00C01AB941860D8F023E436643360C092D6D
:103DBC0024DB520A7243801A7703460A6643360C98
:103DCC0016235B1BDE40DF40BF1964466643821B33
:103DDC007046043506330100D940A840C01900D301
:103DEC000131A24206D20023F0BD0000000000D039
:103DFC00FFFFFFFF121B0130F3D3F1E709277F1BF5
:103E0C00FE406446A2B27243801A00D20139220CE1
:103E1C007243130C1204821A99410B00704604353C
:103E2C0013370100F940A840801900D30131002B51
:103E3C0002D1A2420AD2F0BD013000D30131121BD3
:103E4C00FAD2013BF8D1A24200D2F0BD013000D32E
:103E5C000131121BF7E7F0B51C0C00D080E00CB45C
:103E6C0000251C0A04D11B02160E3343120208351E
:103E7C001C0B04D11B01160F3343120104359C0B90
:103E8C0004D19B00960F334392000235DC0B02D118
:103E9C0092185B4101351C00971864410134464F60
:103EAC007C66464C3C660E0CFFE7FFE7FFE7C0461E
:103EBC003C6F6643360C7703BE4697B27743C01B04
:103ECC0000D20139C01B00D201399FB27743C91B04
:103EDC00C91B170C77437E04FF0B801BB941CE081E
:103EEC006643360C0C2D33DBB644120B1F053A43DC
:103EFC001B0B97B27743C01B00D201399FB277439B
:103F0C00C91B170C77433E043F0C801BB941860D2F
:103F1C008F023E43664329277F1BFE400C3D7746AC
:103F2C00AF40BF1930BCA2B2ABB272437343801A1C
:103F3C009941220C7243130C1204801A994102000D
:103F4C000B000137001BA941F9D2781E0021F0BDEE
:103F5C000C277F1BFE4077467F0BAF40FF19E0E735
:103F6C0000245D1C07D0144F7D663966FFE7FFE720
:103F7C00FFE7FFE73C6F95B29EB265436643401B7B
:103F8C00B141150C1E0C6543664336042F0C3E43A1
:103F9C002D04401BB141994204D202000B002000B9
:103FAC000021F0BD01D19042F7D3801A9941013420
:103FBC009942F2D3F6E70000000000D0FFFFFFFFAC
:103FCC00132370B51D78012D15D010DD1D48FFF79A
:103FDC0095FD1D4C01008022200000F0C3F8022D3D
:103FEC002DD01A48FFF782FD194B186070BD194B84
:103FFC00154CA364F5E7174B134C23606360A36067
:10400C00E36023616361A361E36123626362A36282
:10401C00E36223636363A363E36323646364A36462
:10402C00E36423656365A365E36523666366A36642
:10403C00E36623676367A367E367A364D1E7054B74
:10404C00A364CEE753440000A8A100204C33000029
:10405C0050040120093E002007B5604601880A0A79
:10406C000230DF2AFAD1C9B2820804D30288408810
:10407C000004104300E00068014A5050039007BD53
:10408C00A8A1002051434343C9188C46110C83B29C
:10409C004B4310B4040C614392B280B25043624360
:1040AC001C041B0C001910BC59411304120CC01831
:1040BC005141614470470000132310B512481C781D
:1040CC00FFF71CFD0100012C0AD003DD80220F48F4
:1040DC0000F048F80E48FFF709FD0E4B186010BDB4
:1040EC000A4C5422200000F03DF80B4B6365A3658D
:1040FC00E36523666366A366E36623676367A3676A
:10410C00E3672362E361E5E753460000A8A20020C1
:10411C004C33000050040120CD3E002007B5604612
:10412C0001880A0A0230DF2AFAD1C9B2820804D304
:10413C00028840880004104300E00068014A505097
:10414C00039007BDA8A2002001480421014B184789
:10415C0000A00020BD380020014B1B681847000050
:10416C0000A00020014B5B681847000000A0002055
:10417C00F0B5C64600B5437D07000D001600002BB8
:10418C0038D0002A2EDD00216A1E90466A5C037D21
:10419C004C1C00200A2A0CD0A64216D043461B5DAC
:1041AC0021000D3B5A4253416A5CDBB24C1C0A2A7B
:1041BC00F2D1002BF0D1884217DB022110483B686A
:1041CC009847A64207D02000E8E7864203DD311A63
:1041DC003B6828189847AD19013D2B780D3B5A4286
:1041EC0053413B7580BCB846F0BD091A3B68281892
:1041FC009847E2E70368110028009847F2E7C046A9
:10420C00989D0020F0B5CE46474680B583B06B46EE
:10421C000600DD1D2870FEF7CDF900231A4A12188E
:10422C004B41802109068B4202D30122174B52428B
:10423C0017490800884604F023FE164B81461C687B
:10424C00002C14D0144F02E02469002C0FD02368EA
:10425C00002BF9D03B68002B01D0A342F4D12000F5
:10426C0001222900FFF784FF2469002CEFD14B4673
:10427C00002B05D1300003B0C0BCB946B046F0BD30
:10428C00404604F089FEF5E740420F00FFFFFF7F38
:10429C0058A0002050FD002058FD0020F0B5DE464F
:1042AC0057464E464546E0B585B0070004F058FD2C
:1042BC000600FEF77FF900232B4A12184B41802190
:1042CC0009068B4202D30122284B5242284908008E
:1042DC008B4604F0D5FD274B01901C689A46002CA8
:1042EC003BD0254B984602ABDD1D0A23994602E0D4
:1042FC002469002C17D02368002BF9D043461B6887
:10430C00002B01D09C42F3D1200032003900FFF782
:10431C002FFF4B462000012229002B70FFF728FFAE
:10432C002469002CE7D1019B002B18D153461C6843
:10433C00002C06D06368002B0BD098472469002C06
:10434C00F8D1300005B0F0BCBB46B246A946A04639
:10435C00F0BD2469002CEDD1F3E70028F1D05846CC
:10436C0004F01AFEE2E7C04640420F00FFFFFF7F59
:10437C0058A0002050FD002058FD00200A4A136868
:10438C00002B05D10CE01A001B691032002B07D052
:10439C009842F8D1002902D103691360016170477A
:1043AC000029FCD01060FAE750FD0020F0B5002980
:1043BC0015DD0E4B0D271A680D4B0E4CD3185D42B4
:1043CC006B41451820215B001E5F0478A64207D084
:1043DC0093691942FCD101301460A842F5D1F0BDAB
:1043EC0093691942FCD11760F2E7C0469C04012086
:1043FC000080FCBF94040120214B70B504000D1EFD
:10440C001E682CDD002010211E4B013C1A6893699C
:10441C00194215D1013093691942FCD11368235408
:10442C008542F4D1002E09D0502338219363536B6D
:10443C003432194080235B011343196028000DE0CE
:10444C00002E09D0502338219363536B343219401A
:10445C0080235B011A43116000280ED070BD002E22
:10446C000BD050223821074B1B689A635A6B34339C
:10447C001140802252011343196003204042EDE7A2
:10448C0000FD00209C040120064B10B51B68002B7E
:10449C0006D00021044A12689163044A10689847B8
:1044AC0010BDC04600FD00209C04012004FD00202E
:1044BC001D4BF0B51A68C64698461C4B0E00D31817
:1044CC0059424B411A4F14331C00050000B53B6890
:1044DC00002807D0002B11D0164B3D601E6080BC0D
:1044EC00B846F0BD002BF7D0906300212000FEF7FA
:1044FC002BFA20001049FEF765FBEDE720000E4972
:10450C00FEF73CFA01212000FEF71EFA434650222A
:10451C0038211B689A635A6B343311408022520144
:10452C0013431960D8E7C0469C0401200080FCBFEF
:10453C0000FD002004FD0020394200200C4B10B57A
:10454C001B780C4B0C4C1B780C4B0221002023606D
:10455C00FEF768FE02210120FEF764FEE1212068CF
:10456C004902FEF7D5FE01210548FFF707FF10BDF4
:10457C0018030010140300109C0401200040034099
:10458C0010A0002070B50C4E0D001C003060002AED
:10459C0003DB02211000FEF745FE002C03DB022199
:1045AC002000FEF73FFE29003068FEF7B1FE012126
:1045BC000248FFF7E3FE70BD9C04012010A0002010
:1045CC0010B5024800F00CF810BDC04628040120BC
:1045DC0010B508220149FFF7C5FD10BD28040120C4
:1045EC0010B588B004000D2200216846FFF7B4FD19
:1045FC000D22002104A8FFF7AFFD4B236A46684645
:10460C00137004A90D2204F011FD152108222000BD
:10461C006944FFF7A7FD08B010BDC04610B50121D5
:10462C000520FEF791F910BD10B5002200210248BB
:10463C0000F058F910BDC04680FD00208022024BCE
:10464C005202DA647047C04600201150F0B5C646DD
:10465C0000B5060000F020F90C231B4DFF22AB67C0
:10466C0005201A49FEF7B4F940239846184C40220D
:10467C0000212000FFF770FD4346012723832121F1
:10468C000023144A6770A260136063545F31618425
:10469C0041462187053963540F4A10496360E26033
:1046AC00A1620B606362E26204F020FD80239B0533
:1046BC002F64EB6490230A4A3000EA50FFF7BEFFE8
:1046CC0080BCB846F0BDC04600001150B58F00202C
:1046DC0060FD00208400105000011050800010502C
:1046EC0010D001000B785B0602D14B78052B00D063
:1046FC0070478A78014B1A60FAE7C04600001150E7
:10470C00F0B5C64600B5CC7888780A794B797F210C
:10471C00A40701401B02C50913434F00A20F14004C
:10472C00324E7A195201B2189070012068405070C4
:10473C0000205B055B0DD0701383D4768046CA00D5
:10474C00012D33D02A488446880162448446B444FF
:10475C006046826040461060002933D0254AC9006B
:10476C0090466246414451603F223F339343022CB2
:10477C0000D15B0020487A1901685201B218D1604F
:10478C001E4ACB18036051405A40802388465B0177
:10479C009A4228D84346A4061C4380237F197F01E4
:1047AC00F61972681B062343136011E01448844603
:1047BC00880162448446B44460468262404610607C
:1047CC00002909D100236D0175196B600D4BEB604D
:1047DC00012080BCB846F0BD084AC900904662462C
:1047EC0041445162C0E7FFF74DF9D3E760FD00206B
:1047FC00840010500400105068010120000010507B
:10480C00800010500001105010B504F06FFC10BD6A
:10481C0010B57F200C0020404000E4091100001965
:10482C001A00034B4001C01800F05CF8012010BDC9
:10483C0060FD00207F23180010B50840CA090B4208
:10484C0003D107497D3B9B1A8B6640008018802260
:10485C00044B40010021C018120105F005F810BDF1
:10486C000020115060FD00207F22130010B50B407A
:10487C000A4200D110BDC9095B005B1804485B01FA
:10488C00C018002300220349C37004F0EDFFF1E7C8
:10489C0060FD0020FFF7FFFF80220D4B520410B586
:1048AC001A600C4B0C491A6010008B689843FBD1B2
:1048BC000A4C9C2200212000FFF74EFC8022002194
:1048CC0052010748FFF748FC0923636710BDC04637
:1048DC0000E0004000F0004000C00040000011501B
:1048EC0000001050002310B5C382013382828376FE
:1048FC000161040004F016FF002804D080219023ED
:10490C00074A8902D150200004F020FF002802D071
:10491C000123237710BD200004F0D2FFFAE7C04634
:10492C0000201150F0B5C6461D4A050000249046E3
:10493C0000B51C4E1C4F3378002F26D0A34226D82E
:10494C00E31ADBB2022B1DD85A00D318DB00434408
:10495C005B682800984733780134E4B29A1CA24271
:10496C00EADA124C532200212000FFF7F5FB10224B
:10497C00FF21E01CFFF7F0FB20002022FF21133069
:10498C00FFF7EAFB80BCB846F0BD2300DAE7084B22
:10499C0062001B681219D2009B18002BD8D1F1E7CA
:1049AC003C9E0020990502201510002004BA00201E
:1049BC008CA70020024B5878431E9841C0B2704718
:1049CC0004BA0020024B18784007C00F7047C0464D
:1049DC0004BA0020034B1878FF38431E9841C0B22C
:1049EC007047C0464CA00020F8B5CE46474680B56F
:1049FC002C4E05003378FF2B01D001204CE05322C4
:104A0C0000212948FFF7A8FB284C2000FDF752FA9B
:104A1C00274B1C60274C2000143CFDF769FA200042
:104A2C0001F030FE244B254F1C60254B9846002F7F
:104A3C0027D01800FCF716FC224B186043461B7855
:104A4C00214A00249146002F2AD0A3421BD8E31AF6
:104A5C00DBB2022B1FD85A00D318DB004B441B6867
:104A6C00984743461B780134E4B29A1CA242EADA16
:104A7C0028003570FFF7EAFD2800FFF7CFFD012075
:104A8C000AE01B78DCE70F4B62001B681219D2009E
:104A9C009B18002BE3D10020C0BCB946B046F8BD32
:104AAC002300D6E74CA0002004BA0020BCB900209B
:104ABC0058BA002044A000205CBA00201510002039
:104ACC00990502208CA700203C9E002010B501F017
:104ADC00FDFA002806D0044B186801F0E3FB012313
:104AEC005840C0B210BDC0465CBA0020F0B5DE46DE
:104AFC0057464E464546E0B58FB001F0E7FA002820
:104B0C0000D1C7E0C74BC84F9B46C84E0BAC0097B3
:104B1C0035686A69EFF3108172B61368002BFCD00C
:104B2C00BFF35F8FA9612800210001F0D9FB6A69EE
:104B3C00AB69BFF35F8F0021116083F310880028ED
:104B4C0000D1A7E06378082BE2D8009A9B00D358D9
:104B5C009F466368002BDBD0A0689847D8E77F227C
:104B6C002179B04B0A405500C8095B191B18180075
:104B7C0001273030C578BD43C570C5780337BD43B8
:104B8C00C570002A00D198E0A948DB7C002805D02C
:104B9C00A84A1278934275D39B1ADBB2022B79D8B0
:104BAC005D00ED18A44BED00ED18A3686279207838
:104BBC002D69A847ACE701229A4D01202B780421DE
:104BCC0013432B703323EA5C8243EA54EA5C8A4336
:104BDC00EA540133EA5C8243EA54EA5C00208A43DB
:104BEC00EA5423789A4600F043FC602223791A4059
:104BFC00602A59D0402A54D0DB06DB0E012B6DD035
:104C0C00022B00D1A0E0002B4ED1202A00D1C9E00C
:104C1C00002A49D16379092B46D8884A9B00D3587E
:104C2C009F465B461B78DB0700D471E7844B002B57
:104C3C0000D16DE700E000BF6AE75B461B78DB073D
:104C4C0000D465E77F4B002B00D161E75B461878F9
:104C5C000007C00F00E000BF5AE72078FFF762FEA4
:104C6C0000F0FCFB784B002B00D151E700E000BFBB
:104C7C004EE72078FFF756FE00F0F0FB694B2279E7
:104C8C009A7045E7714A58001568C318DB00ED1897
:104C9C00002D8AD10FB0F0BCBB46B246A946A04647
:104CAC00F0BD6B4800280ED120780021FFF7C2FD23
:104CBC0080212078FFF7BEFD2AE7A368627920786F
:104CCC0000F0EAFB24E700F0D3FB012150460CAACC
:104CDC00FBF704FC002800D01AE7E5E7237A0F2B3A
:104CEC00E2D85348EB18DB78002806D0514A1278EA
:104CFC00934200D2AEE09B1ADBB2022BD4D85D00FB
:104D0C00ED184D4BED00ED18E86800F0B1FB0121FA
:104D1C005046EB680CAA9847002800D0F8E66022B1
:104D2C00150023791D401A42BED163790A3B012B31
:104D3C00BAD800F09DFB63790A2B00D178E150467C
:104D4C000CA900F01FFBE3E67023217A0B42ABD1D8
:104D5C00C80984460F330B405B00E8186044C07CE4
:104D6C0080463348002807D03248007880457BD3F2
:104D7C004746381AC0B280464046022833D82E4FD8
:104D8C0040004044B846C0008044002A2FD043461F
:104D9C00D86800F06DFB434601215046DB680CAA35
:104DAC00984797E7237A0F2B00D97DE72048EB181B
:104DBC00DB78002806D01F4A1278934200D21DE1FE
:104DCC009B1ADBB2022B00D96EE75D00ED181A4B73
:104DDC00ED00ED18E86800F04BFB01215046EB6844
:104DEC000CAA984776E79046002A00D05CE7022789
:104DFC0062799146BA43012A00D1D8E04A46002A8A
:104E0C0000D051E7EB1863443033DB780AAA9B07D8
:104E1C00DB0F02321380504602230CA900F0C8FAB3
:104E2C0076E6C04604BA0020B09D00205CBA002093
:104E3C0015100020990502203C9E0020D49D0020D6
:104E4C000000000000000000000000008CA7002003
:104E5C008D020020CA4A59001568CB18DB00ED18EA
:104E6C00002D00D050E71FE747467F00B946C144EC
:104E7C004F46FF00B946C248006848448046002AA5
:104E8C00B5D0002883D10FE7A7796B789F4206D065
:104E9C006B78002B00D048E1002F00D0DFE05046AB
:104EAC000CA96F7000F06EFA32E6E388012B00D08B
:104EBC00FAE608222B78504693430CA92B7000F08D
:104ECC0061FA25E6022029780AAB9A1C8B06890820
:104EDC00DB0F01400B439DE76B780AAA023213707B
:104EEC00504601230CA900F063FA11E6E3881A0A74
:104EFC00D8B20F2A00D9D7E6A2499300CB589F46C7
:104F0C000CA800F0BBFA5046A179FFF78DFB0222EA
:104F1C002B7813432B70FBE5E388012B00D0C3E601
:104F2C0008222B78504613430CA92B7000F02AFA58
:104F3C00EEE5954B002B00D1B6E6FBF751FB021EBC
:104F4C0000D1B1E6D37891781B020B4350460CA9E3
:104F5C0000F02EFABEE68D4B002B00D1A4E600E04B
:104F6C0000BF021E00D19FE6504613780CA900F03A
:104F7C001FFAAFE62189FBF7FBFA021EF4D193E688
:104F8C00022A00D1E7E0824B002B00D18CE600E036
:104F9C0000BF0200002A00D186E6D3E7FBF7D8FA5F
:104FAC00122302000CA9504600F002FA92E6E288A5
:104FBC00002A0DD1774AEB1810784A466344012A2F
:104FCC0026D03022914699444B46DB789B0738D546
:104FDC004346002B00D19BE5D86800F049FA4346C4
:104FEC000121DB680CAA50469847002000F040FADB
:104FFC003423EB5CDB0700D58AE5A0E6604A590058
:10500C001568CB18DB00ED18002D00D0E2E64BE65E
:10501C0030330193DB789B07DAD5FFF725FC494643
:10502C00019AD378BB43D370D3788B43D370CFE73B
:10503C000AAB9A1C504601230CA9157000F0B8F964
:10504C0066E5FFF7F7FB4B460222DB7813434A4633
:10505C00D370D378012213434A46D370B8E7781E35
:10506C00C0B2FBF77DFA002800D11DE6437805930A
:10507C00022B00D018E60121C279A84693115211D7
:10508C000B400A4012015B0113432A782F318A43EB
:10509C0013432B700923994681444D46B146C3787E
:1050AC0082781B021343C31801930797019BAB42F1
:1050BC0055D96B7801220B2B02D12B78EA78ED189D
:1050CC006B78042B2FD10027019B33495B1B9BB2C0
:1050DC000293324B0891324904931B780397069143
:1050EC000992089A002A2BD0BB422BD8FB1ADBB2B0
:1050FC00022B18D85E00F618069BF6009C466644F8
:10510C0029005046B368029A98478446082802D969
:10511C00029A82422DD2049B01371B78FFB29A1C53
:10512C000397BA42DDDA4E46BEE55046FFF76CFBFC
:10513C00AB7850469846FFF7F5FB4346AB70ABE6B1
:10514C003B00D5E718230E4A7B431668F618002E51
:10515C00D6D14E46A8E5FBF703FA02001AE7114B2D
:10516C004E464546079F002B00D198E600E000BF55
:10517C0095E6099A012A36D0002146461EE0C04623
:10518C008CA70020FC9D0020910300200000000053
:10519C00000000004CA000201510002099050220F2
:1051AC003C9E002000000000AB78CB18DBB2F3185B
:1051BC00D878FF28B7D10131DF70C9B29142F3D151
:1051CC00B04666463B00320029000A4801F004F85C
:1051DC00B446049B039A1B7865440233934200DB6C
:1051EC0064E74E4660E5044BB1689942C4D1059A18
:1051FC00C2E7C04617BA0020E1550020F8B5574663
:10520C004E46DE4645460C00E0B516001F00002A4F
:10521C003CD01F4B00259A46702399461D4B9B464C
:10522C0017E05B462000997800F098FF00281FD00B
:10523C0021004046FFF764FA002819D0A378DA0958
:10524C00012A1CD00A9A013513702378E418B54250
:10525C001CDA6378052B0BD1E3789B079B0FBB42C1
:10526C0006D153464A461B789846A3781A42D8D0A2
:10527C000020F0BCBB46B246A946A046F8BD0B9A2E
:10528C00013513702378E418B542E2DB0120F0E716
:10529C004CA0002004BA0020702270B5094B0C0001
:1052AC001D788B781A4201D0002070BD064B20006F
:1052BC00997800F053FF0028F6D021002800FFF762
:1052CC001FFAF2E74CA0002004BA00200B007F204C
:1052DC0010B51840DB0933334000044AC018044BA6
:1052EC001168C01800F0F6FE10BDC04658BA002078
:1052FC0004BA00200B007F2010B51840DB093333B3
:10530C004000044AC018044B1168C01800F00AFF92
:10531C0010BDC04658BA002004BA002070B57F24D6
:10532C000F480C4064000419CD0964193034E0783E
:10533C00C00701D5002070BD0126E578094835432A
:10534C000078E570FFF764FA0028F4D10122E378C5
:10535C009343E370E37803329343E370EAE7C04688
:10536C0004BA00204CA000207F22054B0A405200BA
:10537C00C9099B185B183033D878C007C00F704729
:10538C0004BA002070B5094C0600082220000D005C
:10539C00FEF7E8FE00238021E360A3602B78300049
:1053AC00994300220023FFF7B9FF70BDD8B8002045
:1053BC00F8B5CE4647469046264E80B58146082223
:1053CC0030000D001F00FEF7CDFE4346B3600023F6
:1053DC00F381EC79AB7924021C43231CBC4200D929
:1053EC003B1C9FB2B381002C0ED0002F18D043462B
:1053FC00002B2CD03B1C402F1BD89FB233787F2B1B
:10540C001CD80021144A0FE080212B7800229943EC
:10541C0048460023FFF782FFC0BCB946B046F8BD32
:10542C007F230022317899433B004846FFF776FFF3
:10543C00F2E740239FB233787F2BE2D9064C3A0037
:10544C0041462000FEF78EFE80212200ECE7002072
:10545C00E2E7C046D8B80020C4B9002010B5142229
:10546C0000210248FEF778FE10BDC046D8B80020D7
:10547C00014B18617047C046D8B8002010B5054CD8
:10548C00010008222000FEF76DFE0023A360E360FC
:10549C0010BDC046D8B8002070B5394C1D0023781B
:1054AC000600DA09C9098A4213D00020002D00D069
:1054BC0070BD344B002B03D021003000FFF712F9E4
:1054CC002369002B03D022000321300098470120D0
:1054DC00EEE7A0687F2B05D8002834D02A002A4993
:1054EC00FEF740FEE289A1685219E38892B249198D
:1054FC00E281A160934214D03F2D12D9A389981A4E
:10550C00051C80B240282AD82078ADB27F2828D834
:10551C0000219A4232D01C4A2B003000FFF7FEFECD
:10552C00C6E72369002B05D02200022130009847E2
:10553C0000280AD0802123780022994330000023D0
:10554C00FFF7ECFEB4E70020B2E700213000FFF7D4
:10555C0071F930008021FFF76DF90120A8E7402593
:10556C00D2E79A4207D0084C2A002000FEF7FAFD39
:10557C0080212200D0E780210022CDE70022CBE75A
:10558C00D8B8002095440020C4B9002010B5040000
:10559C00FFF710FA002801D1002010BDFFF712FA16
:1055AC000028F9D1034A044B62439B181B79013044
:1055BC001840F2E74811000090A70020034B10B5EB
:1055CC0043430348181800F057FE10BD4811000063
:1055DC00A0A70020F0B5194DC64645432C00184F26
:1055EC001034E41900B5200092B200F0C7FE06009A
:1055FC00200000F05FFE3F2803D8300080BCB84686
:10560C00F0BD7B190020D9789846FFF75FFE002883
:10561C00F3D0200000F04EFE3F2809D9094B0020A2
:10562C00EA184346D219D9784023FFF777FEE4E70E
:10563C0043460020D978FFF75DFEDEE748110000F5
:10564C0090A70020C8100000F8B5144D144E454327
:10565C002C001034A419200001F014F8200000F0E4
:10566C0029FE3F2800D8F8BD77190020F978FFF7FC
:10567C002DFE0028F7D0200000F01CFE3F2808D992
:10568C00084BF978EA18921940230020FFF746FEE0
:10569C00E9E7F9780020FFF72DFEE4E74811000058
:1056AC0090A70020C8100000F8B50400FFF782F99D
:1056BC00002801D10020F8BDFFF784F90028F9D1AA
:1056CC00154B164E5C4325002435AD19280000F00F
:1056DC00D3FD0028EED037190020B978FFF7F6FD7E
:1056EC000028E7D00E4B28009C466444A4192100E6
:1056FC00402200F043FEB978051E08D003002200BA
:10570C000020FFF70BFE0028D4D02800D3E70020A0
:10571C00FFF7F0FDCEE7C0464811000090A700202F
:10572C000811000070B50A4C0A4B4443E4180500FC
:10573C0092B2200000F0EAFE0600200000F09CFD72
:10574C003F2801D8300070BD2800FFF7ADFFF9E706
:10575C0048110000B4A70020034B10B54343034885
:10576C00181800F0A7FD10BD48110000B4A70020C8
:10577C00034B10B543430348181800F083FF10BDCA
:10578C0048110000B4A7002070B51A4C82B000215B
:10579C002000194AFEF7E0FCFF236371174B00252C
:1057AC00E380012608232100200026812373802218
:1057BC0038310095073B103000F028FD2100200007
:1057CC008022B831520100960123243000F01EFDD6
:1057DC000B4BE6183000FCF76DFB86235B01266251
:1057EC00E6183000E561FCF765FB2663656302B0E3
:1057FC0070BDC04690A700204811000000C2FFFFFA
:10580C00B810000010B5094C052200212000FEF74D
:10581C00A3FC20002434103000F034FF200000F0F2
:10582C0031FF0121200000F04DFF10BD90A700209A
:10583C00F0B54B79060083B0022B02D18B79022B89
:10584C0003D00025280003B0F0BD2E4FBB78002BF1
:10585C00F7D18B7809253B700C780C196378242BC5
:10586C000BD1082A02D81FE0AA421DD32378E418D2
:10587C005D196378ADB2242BF6D0052B2FD0042BF9
:10588C0012D163790A2B0FD11F4B27780193013367
:10589C000093022202233000E119FFF7AFFC00282D
:1058AC00CFD00E35ED19ADB2184C200000F002FD32
:1058BC003F28C7D92600103E0020F178FFF706FDDF
:1058CC000028BFD0200000F0F5FC3F2815D9104B64
:1058DC00F178E21800204023FFF720FDB2E7210009
:1058EC003000FFF7D9FC0028ABD0A3787B7023786D
:1058FC005D19E4186378ADB2C1E7F1780020FFF7C9
:10590C00F9FC9FE790A7002092A70020A0A70020F9
:10591C00B8100000F8B5602314001278050013408D
:10592C000020202B12D12F4A6379277916781B027D
:10593C003B439E420AD16378222B1AD007D8202BE6
:10594C003CD0212B02D1012930D00120F8BD232BD2
:10595C00FCD101293FD00329F7D1234B002BF4D0E4
:10596C00E178A378090200201943FBF7ABF801207A
:10597C00ECE701292FD00329E7D101252E00A378CC
:10598C00E478023924021C4314712640243210009E
:10599C00714000F097FE154B002BD6D0620800200A
:1059AC0031002A40FBF77EF80120CFE707232100C6
:1059BC0028000F4AFFF7FCFC0120C7E70129F5D0AE
:1059CC000329C2D10B4B002BBFD00020911DFBF73C
:1059DC000FF80120BAE721002800FFF7D3FC0120C3
:1059EC00B4E7C04690A70020750800205508002099
:1059FC0096A70020A1070020F8B545465746DE467D
:105A0C004E46E0B5454D1F00EA7880460C00AB7859
:105A1C008A4246D000208B421AD0F0BCBB46B2461C
:105A2C00A946A046F8BD3E4B002B04D0484600F0DA
:105A3C0039FC00286AD0484600F03CFC3F2807D9C6
:105A4C004E46103E0020F178FFF740FC002850D164
:105A5C00AB78A34201D00120DFE7324B002B02D000
:105A6C00002000E000BF0020FFF71EFE0028F2D14E
:105A7C002D4C200000F000FC0028ECD1002FEAD0C7
:105A8C00BF06E8D1243C4046A178FFF71FFC002854
:105A9C00E1D0002300224046A178FFF73FFC012013
:105AAC00BBE7224BBAB2EE1810239B46AB44310035
:105ABC00584600F02BFD1E4BD946002BB3D06B790A
:105ACC00FF2BB0D0002FAED0F219924603E0013676
