:020000041000EA
:1000000000B5324B212058609868022188439860DF
:10001000D860186158612E4B002199600221596106
:100020000121F02299502B49196001219960352056
:1000300000F044F80222904214D00621196600F024
:1000400034F8196E01211966002018661A6600F04E
:100050002CF8196E196E196E052000F02FF8012189
:100060000842F9D1002199601B49196000215960AB
:100070001A491B48016001219960EB211966A021F2
:10008000196600F012F800219960164914480160C1
:100090000121996001BC002800D000471248134993
:1000A000086003C880F30888084703B5996A0420EC
:1000B0000142FBD001200142F8D103BD02B5186610
:1000C0001866FFF7F2FF186E186E02BD00000240BE
:1000D000000000180000070000035F00212200005C
:1000E000F4000018222000A00001001008ED00E03C
:1000F00000000000000000000000000074B24E7A12
:1001000000200420F7010010C3010010C5010010F9
:10011000C1010010C1010010C1010010C101001097
:10012000C1010010C1010010C1010010C701001081
:10013000C1010010C1010010C9010010CB01001065
:10014000CD010010CD010010CD010010CD01001037
:10015000CD010010CD010010CD010010CD01001027
:10016000CD010010CD010010CD010010CD01001017
:10017000CD010010CD010010CD010010CD01001007
:10018000CD010010CD010010CD010010CD010010F7
:10019000CD010010CD010010CD010010CD010010E7
:1001A000CD010010CD010010CD010010CD010010D7
:1001B000CD010010CD010010CD010010CD010010C7
:1001C00000BE00BE00BE00BE00BE00BEEFF3058054
:1001D000103800BEF2EB8871D80200101C0300102A
:1001E0003402001090A31AE700202249086006C8D4
:1001F00081F30888104720480068002835D10DA4F5
:100200000ECC002902D000F012F8F9E71B491C4A75
:10021000002000E001C19142FCD11A4988471A49E7
:1002200088471A49884700BEFDE701C901C29A42C2
:10023000FBD370471C030010C0000020048C00207A
:10024000608E0010108C002090A00020E0A2001012
:100250000000042000000420E0A200100010042090
:1002600000100420000000007047094800F014F856
:100270000047000008ED00E0000000D090A0002042
:1002800020040220ED360020C9010020E1370020C3
:10029000575600000000000001B40248844601BC2B
:1002A000604700BF8D38002006005250ABB360534A
:1002B000A89C002006005250861C0302B89C002017
:1002C000060052505422A29DC49C002005005250AA
:0802D000DE65F468E0A20010F5
:1002D8004899002054990020609900206C990020CA
:1002E8007899002084990020CC020010C0020010E8
:1002F800B4020010D09C0020A8020010DC9C002052
:10030800E89C0020A09E0020AC9E0020249D002098
:04031800309D0020F4
:10031C00F8B5C0460448054B10B5834203D0044BD6
:10032C00002B00D0984710BD90A0002090A000207A
:10033C000000000006480749091A8B10C90FC9189C
:10034C0010B5491003D0044B002B00D0984710BDBA
:10035C0090A0002090A000200000000010B5074CD9
:10036C002378002B09D1FFF7D5FF054B002B02D0CA
:10037C00044800E000BF0123237010BDD0A300206F
:10038C0000000000048C0020054B10B5002B03D09E
:10039C000449054800E000BFFFF7CCFF10BDC04684
:1003AC0000000000D4A30020048C00207047C0463D
:1003BC0010B5192002F086FFD02380221B06920470
:1003CC005A6210BD30B583B007F040FED024012531
:1003DC000190240601200021404204F0E5FB6368F3
:1003EC005B0E1D420BD080239B04A36104F0CCFB5D
:1003FC000028EFD1012101A807F0D4FFEAE704F0AF
:10040C0027FB0028EFD004F02BFB0028EBD1802336
:10041C009B046361EAE7C04610B582B0FFF7C6FFE4
:10042C0006F0E8FA00F088FB00F022FA05F0E8FE8E
:10043C0004F0B8F801F010FDFFF7BAFF124B80245E
:10044C0001930323640022000093104900231048F9
:10045C0007F018FB0F4B2200019302230E49009367
:10046C000E48002307F00EFB0D4B220001930123D5
:10047C000C4900930C48002307F004FB07F0EEFC3A
:10048C00002002B010BDC0461C0301209099002032
:10049C0085070020E40201209899002075010020B6
:1004AC0088FB00209C990020950E002000207047AE
:1004BC0070B51800084C04AB1D88210000F0DAFE62
:1004CC002B1C402D00D94023220000219BB2002080
:1004DC0005F0DAFB70BDC04688A40020F0B505001D
:1004EC001400012083B0012905D1137800205B068C
:1004FC009B0F022B01D003B0F0BD5378012BFAD126
:10050C00637912791B021343072BF4D16B46074E08
:10051C009F1D31000222380003F01AFE3200210028
:10052C0028003B88083A04F0CFFFE4E7C09A00208B
:10053C007047C04610B50248097803F07DFAC046F2
:10054C00A099002010B5014803F076FAD09900204C
:10055C0000487047809A002000487047949A002009
:10056C003E2306220148C2547047C046009F00201B
:10057C0070B5002826D0062831D81A4B8000C658F2
:10058C00300008F037FCC0B2011C1F2815D8C9B2C6
:10059C00002821D00023144DAA1CF05C0133DCB2DE
:1005AC0010800232A142F8D8C0230131C9B24900EF
:1005BC009B0019432800298070BD1F21C9B2002857
:1005CC00E8D109E0084D074B02221968A81C03F07A
:1005DC00BFFDC1218900EDE70449034DEAE7002086
:1005EC00EAE7C046649F002040B7002002030000E9
:1005FC00004870475C9A002010B50400052003F0F9
:10060C002BF9FA21890003F09BFA210003F098FAE8
:10061C00032805D980080004C823034AD05010BD14
:10062C0080204002F8E7C04600002050431EFF2007
:10063C0010B5802418400A4B64001B68094A5B0201
:10064C00184304438020400253680342FCD18020AD
:10065C001461044A400253680342FCD1116110BD7D
:10066C00FCFF002000002050431EFF20802118407A
:10067C00094B0A4A1B6849025B02184353680B4238
:10068C00FCD110618022054952024B6818001040C1
:10069C001342FAD108617047FCFF00200000205083
:1006AC000E4B30B51C68FF2380210500421E083418
:1006BC00134064020A4A1C43490253680B42FCD1A2
:1006CC0080211461064A490053680B42FCD1106A20
:1006DC001F2D02D820235D1BE84030BDFCFF0020FD
:1006EC00000020500A4B80211868FF230330400281
:1006FC00084A1843490253680B42FCD18021490433
:10070C0010619160034A93680B42FCD07047C0465D
:10071C00FCFF00200000205080210A4B0A481B6877
:10072C000A4A03335B021843490253680B42FCD15B
:10073C008021490410619160044A93680B42FCD0FB
:10074C007047C046FCFF0020FF0100000000205055
:10075C00F0B5C64600B5294C88B06368002B03D0B1
:10076C0008B080BCB846F0BD2549264806F05AF9B9
:10077C000300C61C0A33F2011B031343224A8025D3
:10078C0013408022D20513430593C0231B039846C4
:10079C0006931E4B206007930123070002220021C1
:1007AC00184800936D020133049506F0B9F9069BC5
:1007BC0000210393039A164B1248134042461343ED
:1007CC0006933A0004AB06F003FA052003F044F854
:1007DC00104B98420BD8C82301210A4AD55010332C
:1007EC00D65013688B430B4313606160B8E70A491A
:1007FC0003F0A6F985082D04EDE7C046FCFF0020A8
:10080C006C9B002000002050FFFFFF9F6388114469
:10081C00FFFF00C0FF083D0040420F0070B5114CB7
:10082C006368002B1CD0FF23802022680E49D51C46
:10083C006D021D4340024B680342FCD180204004F2
:10084C000D61886008498B680342FCD001200B685D
:10085C0083430B600448054906F048F900236360A4
:10086C0070BDC046FCFF0020000020506C9B002097
:10087C0010B50221082002F0C7FC0221092002F069
:10088C00C3FC00220121082002F0E0FC002201211F
:10089C00092002F0DBFCE1210248490202F030FDA4
:1008AC0010BDC04600800340102170B50C00424AB8
:1008BC0093691C40194268D1404D681E01349369FC
:1008CC001942FCD1136803559369194201D1202CAC
:1008DC00F4D1002004F0F2FE002806D1384C236835
:1008EC00002B44D10024200070BD0122344B002089
:1008FC001A6004F0CDFFA04250D322002900002042
:10090C0004F0AAFF002004F069FF002004F0EEFEC2
:10091C001F2806D8002004F0E9FE021E15D010286E
:10092C0000D91022274C0020210004F0EDFE0028F5
:10093C000BD02100241820201F4A93691842FCD1A7
:10094C000B7801311360A142F7D11F4D2B78DCB22B
:10095C00002BC7D01D4B1E6807F078FB361AC2D58A
:10096C000023002114482B7002F0DEFDBAE70020B2
:10097C0004F09CFF0021104802F0D6FD0023124A1F
:10098C0023601370124A1360ACE7002004F096FE4B
:10099C000028A3D001220A4B1A60B6E7002004F00D
:1009AC0077FFA04203D30028AFDD0400A5E7084A77
:1009BC00136801331360F6E700800340AC0201209A
:1009CC0054030220E80201201C04022048FB0020F2
:1009DC0050FB002070B507F039FB084C084D206027
:1009EC00FFF762FF0028FBD12000296807F0DAFC32
:1009FC000028F5D107F02AFB2060F1E7DCFF00208E
:100A0C00809F002070B50C0063780978A2781B02D7
:100A1C000B43E178120413430906194300D1013149
:100A2C00224803F08DF8224D0600286807F06AF979
:100A3C00312E35D93221300003F082F81D4B18606D
:100A4C001D4802F021FD002004F030FF002004F0CE
:100A5C0095FE63782178A2781B020B43E17812048F
:100A6C00134309061943144802F04AFC6379012B1D
:100A7C001AD0023B5A425341DBB2A1794A1F032AD6
:100A8C0000D90821207900220124013884425241E6
:100A9C000948013202F00AFD286807F099F970BD87
:100AAC000122044B1A60CBE70223E6E700688909B0
:100ABC001C030120809F002000800340064B10B5D2
:100ACC001868002901D1002A02D007F081F910BD65
:100ADC0007F018F9FBE7C0461C03012010B50C1EEB
:100AEC0012D0114B994216D00121104802F01CFD76
:100AFC0001220F4B1A7007F0A9FAA1000C190D4B2B
:100B0C00A40024181C6010BD0021084802F00CFD44
:100B1C00074B1C70F7E70121044802F005FD002289
:100B2C00034B1A70EFE7C046FFFF00000080034044
:100B3C001C04022048FB002070B5774C200003F009
:100B4C007BFD2378180901001A01D2B230319F2B9A
:100B5C0000D90731714B1009197000212170010067
:100B6C0030319F2A00D9D4E0597061780D092800E2
:100B7C000A01D2B230309F2900D9BFE00021987011
:100B8C0010096170010030319F2A00D9B4E0D9708E
:100B9C00A1780D0928000A01D2B230309F2900D962
:100BAC009FE0002118711009A170010030319F2ABB
:100BBC0000D994E05971E1780D0928000A01D2B2EC
:100BCC0030309F2900D97FE0002198711009E17025
:100BDC00010030319F2A00D974E0D97121790D09B7
:100BEC0028000A01D2B230309F2961D80021187236
:100BFC0010092171010030319F2A57D8597261793F
:100C0C000D0928000A01D2B230309F2944D80021A6
:100C1C00987210096171010030319F2A3AD8D9724B
:100C2C00A1790D0928000A01D2B230309F2927D8AA
:100C3C00002118731009A171010030319F2A1DD8B1
:100C4C005973E1790D0928000A01D2B230309F297D
:100C5C000AD8002198731009E171010037319F2ADD
:100C6C0000D80739D97370BD00210730987310096B
:100C7C00E171010037319F2AF4D8F2E70731DFE741
:100C8C000021073018731009A171010030319F2A1F
:100C9C00D6D9F3E70731C2E7002107309872100963
:100CAC006171010030319F2AB9D9F3E70731A5E70B
:100CBC0000210730187210092171010030319F2A70
:100CCC009CD9F3E7073188E70021073098711009A8
:100CDC00E170010030319F2A00D87EE7F2E707313E
:100CEC0068E70021073018711009A170010030313C
:100CFC009F2A00D85EE7F2E7073148E7002107306A
:100D0C00987010096170010030319F2A00D83EE7BD
:100D1C00F2E7073128E7C04608030120240302202C
:100D2C00F8B5124F124D7A682B6804000E009A42E7
:100D3C0018D0013253019B1A9900891809010D48EA
:100D4C0002F0FEFEFFF758FC7B682B60002C0BD0EA
:100D5C002500082C00D9082531782800FFF766FCFF
:100D6C00641B0136002CF3D1F8BDC0466CA40020E6
:100D7C004CFB002040597307F0B5C6461E4B1F4C68
:100D8C00150098465A68236807000E0000B59A4271
:100D9C000DD0013253019B1A99008918090118488A
:100DAC0002F0CEFEFFF728FC43465B6823603F232E
:100DBC001C003C403B4200D140243B060FD52E008A
:100DCC002500082C00D908252800FFF769FC641BB6
:100DDC0030700136002CF3D180BCB846F0BD250034
:100DEC00082C00D9082531782800FFF71FFC641B5C
:100DFC000136002CF3D1EFE76CA400204CFB002053
:100E0C0040597307F8B5DE464E4645465746584C92
:100E1C00E0B5584E2368726805008B469A420CD098
:100E2C00013253019B1A990089180901524802F0AA
:100E3C0087FEFFF7E1FB7368236001270124BC46A2
:100E4C00200067462840E9086A08AB082240234086
:100E5C000C404100394397003943DF00D31820225E
:100E6C001B1939431B18270139435B011340C9B2C5
:100E7C001943802308201943FFF7D8FB307E033039
:100E8C00FFF70EFCFF230400307E1C400441E4B24B
:100E9C009846012C22D00227A31EBB43DBB2002BA9
:100EAC0009D02130FFF7FCFB2000F0BCBB46B2465A
:100EBC00A946A046F8BD737E002B2DD02F424FD1F2
:100ECC00FFF7D2FB737E002BEED000212020FFF722
:100EDC00ADFB00210120FFF7A9FBE5E7AB0723D50C
:100EEC002020FFF7DDFB81460120FFF7D9FB82466E
:100EFC00484602F0EDFD43465246134043401C4227
:100F0C0000D007345B46002B02D04B465A46136088
:100F1C00307EFFF7A9FB17E0FFF7A6FB737E002BD3
:100F2C00C2D02F42C0D1D0E7FFF79EFB5B461F68B3
:100F3C0020203900FFF77AFB380002F0C9FD0100D0
:100F4C0001202140FFF772FB2B0602D50B4B9B6A4D
:100F5C00B360307B0028A7D00021FFF767FBA3E725
:100F6C002120FFF79DFB307EFFF77EFB9CE7C04600
:100F7C004CFB00206CA40020405973070040054036
:100F8C007047C0467047C04600207047F0B54646D3
:100F9C00D6464F46C0B54B7906000C00FF2B1FD12F
:100FAC008B79002B1CD1CB79002B19D18020814659
:100FBC004F461E491E4D0B5004300B50A846EB51AA
:100FCC002B50892504307F3F4B550F5441464B55D0
:100FDC000F542379DD00ED1A0935ADB2AA4206D2C1
:100FEC0000252800E0BCBA46B146A846F0BDE37A1D
:100FFC0021009A4652460F4B300009311A7004F00A
:10100C00D5F943464A469A5851463A4092014244D1
:10101C004023300004F00CFA2100A27C064B300077
:10102C0010311A7004F0C2F9DBE7C04654A5002059
:10103C00C8A400201704022016040220F8B5CA091F
:10104C000024012A14D0402B10D880268422214D54
:10105C00AB59AF580133833A1340BB4219D18923A2
:10106C00EA541D4B0124186806F0B2FE2000F8BDAE
:10107C00402BFBD884258826184C635901336351C7
:10108C00A35D002B12D0144B0124186806F0A0FEAF
:10109C00ECE7AB590133AB51AB591A4092014023E9
:1010AC00521904F0C5F98923EC54ECE767590C4B41
:1010BC003A401B6892019BB2121904F0B9F98022D4
:1010CC006359A25801339B1A5A425341DBB2A355C0
:1010DC00D9E7C046C8A4002088FB002054A50020F6
:1010EC000CB80020F8B55746DE464E464546564BE2
:1010FC00E0B59B46554B80269A46554C554F84235C
:10110C00E258A3599A425BD08423E558833B2B4089
:10111C009B01E25C7E2A15D1013291467E3A9046C3
:10112C004A46E254A35901359D4205D1386806F070
:10113C00E9FDA359AB42F9D043462B409B01E25C3D
:10114C007E2AEDD084220125A158434829408901EB
:10115C00443A611802F0FCFF8422A3580133A350D7
:10116C0089239846E35C002B59D13C493A4800F05E
:10117C0051FE5B46186006F061FF534684219A5974
:10118C005B589A4220D053465A4601209B5912680C
:10119C001840800112043149120C504402F0D8FF5F
:1011AC00534652469B595146013393518823002292
:1011BC00CA5407F03FF88423E258A3599A42A3D1AA
:1011CC00386806F09FFD9AE7534698595B4601250F
:1011DC001A682840800112042049120C504402F075
:1011EC00B7FF534652469B595946013393518423BA
:1011FC00D2580B682A401A4992019BB25244097882
:10120C00002004F015F907F015F88423E358A259CF
:10121C009A4200D078E7386806F074FD6FE706F064
:10122C000DFFA35900200133A351A2590D4B2A40A5
:10123C0092011978A218402304F0FAF800234246D0
:10124C00A35406F0F7FF90E70CB8002054A500203B
:10125C00C8A4002088FB0020ECA300202CA40020B4
:10126C001604022017040220012303700048704763
:10127C008C9B0020F0B5DE4657464E464546E0B501
:10128C00037804001A00803AD2B28B468BB01F2A26
:10129C0009D90A00013201920B701D2B0ED8CD49D1
:1012AC009A008A58974600F0F5FD040020000BB018
:1012BC00F0BCBB46B246A946A046F0BDFF235A4639
:1012CC00C54C1370F2E702235B445A46994600233F
:1012DC0053704278831C571E002A38D00122924644
:1012EC003E320125934612E0FFF716FA4A46414674
:1012FC002000FFF741FD002F00D18FE1434601355F
:10130C009B19AD197A1E002F00D199E117005A1CB8
:10131C001C7890465B465A4608262340224201D050
:10132C000733DE0863B2002BDEDAFFF7DBF94A463F
:10133C0041462000FFF720FD002F00D194E14346E9
:10134C000135B144B244DDE7FF235A465370A34C38
:10135C00ACE7FF235A46447853709F4B01209C46C0
:10136C000134240404436444A0E7FF235A46537019
:10137C004378811C581E002BE9D001233F252A00FD
:10138C000C782240254200D142E10732D2080132CA
:10139C0089189B180138F2D21C0401231C438E4B74
:1013AC009C46644482E7032243788D491A405B07CC
:1013BC000132DB0F0A764B765A460023874C53706A
:1013CC0074E7811C4078002800D150E10123C41D32
:1013DC00E408013424041C437F4B9C466444FFF70F
:1013EC009FFC00235A46537060E77D4B1B78012B02
:1013FC0000D10EE3FF235A467A4C537056E782789D
:10140C004178C37812020A4301791B041A43090676
:10141C00114300D13AE1744B994200D83BE10122CF
:10142C006F4B5A705A6000235A46704C53703DE70C
:10143C0000246B4B1C70FFF7F1F95B465C706C4C35
:10144C0034E743780024012B07D80122644B1A702F
:10145C00FFF77EF9674B1C6001345B465C705F4C98
:10146C0024E700235A46644C937053701EE782782D
:10147C004178120211434A01521A93005B18013B46
:10148C00FDD100235A465D4C53700FE70179C378A8
:10149C004279090219438379120411431B060B4349
:1014AC0032D00224042620258278417850B281461D
:1014BC0053481440019416401540834200D9030050
:1014CC004C08A0468C08A4464E484C09A246CC09B0
:1014DC00876A0294D40700D5EDE0029C002C00D062
:1014EC0047E34146002900D15CE36146002901D065
:1014FC0000F03CFC5146019C002C00D033E3002D45
:10150C0002D0002900D02EE300235A463E4C5370E3
:10151C00CCE6431C0693324B99461B78012B00D129
:10152C00D1E08278C31C002A00D190E00220102464
:10153C0006E00C4207D10133013A002A00D186E0C3
:10154C0019780842F5D10533F6E7437824495A4611
:10155C000B73E37880781B0203430B826379207949
:10156C001B0203434B8200231E4C53709EE61C4B04
:10157C0099461B780593012B00D15EE200235A4655
:10158C00032053709370D37023799B0773D58024F9
:10159C00114BE4029C460443644487E64378012BD8
:1015AC0000D86EE7FF235A46144C53707EE64278FF
:1015BC00F12A00D1C2E234D8042A00D1B5E2F02AD3
:1015CC0001D000F021FC31235A46104C9370303B73
:1015DC0008E7C046AC9B002001000100020002009D
:1015EC006CA40020020006009FACB90302000500A9
:1015FC00020001004CFB002003000100020003006C
:10160C00C0C62D0000400540020007000300020088
:10161C0009310933013800D3B1E6BDE6FFF77CF898
:10162C006CE6FE2A00D195E2FF2A01D000F0ECFB1B
:10163C0040235A4693700023C84CD3700233D1E632
:10164C0053462C041C43C64B9C4664442EE6002295
:10165C0059464A708A70069A02209C1AC04B240480
:10166C009C460443644421E6FFF756F867E6802065
:10167C00BC4C4000B3E6BA4BA1789C46E4782402FB
:10168C000C430134A404044364440FE6FF235A467C
:10169C00B54C53700AE6B54B994600234A46537035
:1016AC00B34BC81802F04CFA431E5A1E9341C01A91
:1016BC004B465860B7E6002900D125E7826AD21B59
:1016CC009342FBD820E75B46033305930023A94DD7
:1016DC00C61C2B7083780393002B00D190E300235E
:1016EC000020984607930293731C9A460493022396
:1016FC0037783B4200D1A1E04346002B2AD04B4621
:10170C001C8A11233B40012B08D184E0002C00D112
:10171C0021E12B78013C002B00D01CE10E2009A903
:10172C00FFF770FB0228F1D00023984601285CD10A
:10173C00099B05991A0A0B704A701A0C1B0ECB7078
:10174C0043468A700A1D002B03D07BB24046002B07
:10175C0068DB0592FB0600D4ABE053465A78197847
:10176C001202114352469B78D2781B040B4312068B
:10177C001A43731D04934B4692465E8AFB0710D5A1
:10178C004B461C8A05E0002C2FD02B78013C002BFB
:10179C002BD100213800FFF735FB0228F3D00128AC
:1017AC0023D14B461C8A07E0002C00D120E12B787A
:1017BC00013C002B00D01BE1380009A9FFF722FBEC
:1017CC0002000228F0D0012800D011E14A46099B02
:1017DC00526913409A4500D117E1002E00D112E155
:1017EC002B78013E002BDCD0103002221021049EFD
:1017FC00039B05E0214206D10136013B002B46D06C
:10180C0034782242F6D10536F7E7002CEDD02B7850
:10181C00013C002BE9D1380009A9FFF7F3FA0228A3
:10182C00F3D083E74B469B681A0A0B714A711A0C6A
:10183C001B0E8A71CB71083105918BE74346002B47
:10184C0000D099E05246534651781B78090219434F
:10185C0053469278DB781204114320221B060B436B
:10186C00099305363A4200D1A6E04A46536100235B
:10187C0001209846029B013302932B78002B00D059
:10188C00ABE1039B013B0393002B00D02CE7012819
:10189C0000D102E25B46029A98705A70069B019A3C
:1018AC00F41A059B24049B1A1C432D4B9C46644440
:1018BC00FCE44B461C8AFB070CD54346002B36D068
:1018CC00002356460793D5E7002C8ED02B78013C8D
:1018DC00002B8AD1380009A9FFF794FA0228F3D01B
:1018EC00012882D17FB2002F0BDA4B469B680599F9
:1018FC001A0A0B704A701A0C1B0ECB700B1D8A70D7
:10190C000593099B05991A0A0B704A701A0C1B0E49
:10191C00CB700B1D0593002356468A700793A9E7DD
:10192C00002C18D02B78013C002B00D05DE7002157
:10193C003800FFF767FA0228F2D0012800D054E7EC
:10194C007FB2002F00DACDE10023079301339846D4
:10195C0056468FE704960023984646E7040002009B
:10196C000100010002002200020005006CA400200E
:10197C009FACB903140402204B461C8A07E0002CD0
:10198C0000D132E72B78013C002B00D02DE70E2044
:10199C0009A9FFF737FA0228F1D0012800D024E773
:1019AC00099B05991A0A0B704A701A0C1B0ECB7006
:1019BC000B1D8A70059345E74B461B8A1C0006E0FD
:1019CC00002C00D1CCE02B78013C002BC2D138008C
:1019DC0009A9FFF717FA0228F2D00128BAD17FB271
:1019EC00002F00DA90E0012307930023984641E78B
:1019FC004946099B49690B409A4500D1F5E61020F0
:101A0C001043C0B2F1E61120EFE60023049E0793C9
:101A1C0030E7C278837812021A43037909A91B04B0
:101A2C001A43437900201B0613430993FFF7EAF985
:101A3C0000235A46BF4C537038E45B460433984637
:101A4C0004930023BC4D82782B70C3781B02134384
:101A5C00039300D11DE10779BB0700D5BFE0431DFF
:101A6C009A460023029309AB2C0080461D00524677
:101A7C00534652781B7812021A4353469978DB78F6
:101A8C0009040A431B061343099304239C464B4643
:101A9C00E2441E8A05E0002E30D02378013E002B54
:101AAC002CD129003800FFF7ADF90228F3D001281A
:101ABC0024D1029B01330293039B013B0393002B24
:101ACC00D5D14B4625001E8A444605E0002E09D090
:101ADC002B78013E002B05D100210E20FFF792F947
:101AEC000228F3D0029BDAB21B0ADBB259464A70C9
:101AFC008B70019A049BC870981A45E5029B44466A
:101B0C00DAB21B0ADBB2F1E74B469B6805991A0A5D
:101B1C000B704A701A0C1B0ECB70012307930B1D14
:101B2C00059300238A709846A4E65B460622981C0F
:101B3C00824902F00DFB824C062353E45A464023A3
:101B4C0093700233D370333B137100237D4C53716C
:101B5C00043347E402235A467B4C9370013B41E427
:101B6C00A046049641E6826AD21B9A4200D2C3E494
:101B7C00CAE45146002900D0E8E04246002A00D1D0
:101B8C000DE149466546019C002C06D1002E01D082
:101B9C00002D02D1002900DBB6E4826AD21B9A42E6
:101BAC00F2D3B1E452466146002A0AD1002E00D18C
:101BBC00AAE4002900D1A7E4826AD21B9A42F5D389
:101BCC00A2E4002E01D0002902D1002D00D19BE40B
:101BDC00826AD21B9A42F4D396E4049605E6059BDE
:101BEC003B4213D04B461E8A07E0002E00D1E6E0A4
:101BFC002B78013E002B00D0E1E000213800FFF7EC
:101C0C0001F90228F1D0012800D0D8E0039BC2468C
:101C1C00013B02930023039309ABA0462C001D004B
:101C2C0053460493029B002B2ED04B461E8A05E094
:101C3C00002E23D02378013E002B1FD12900380021
:101C4C00FFF7E0F80228F3D0012817D1524651468D
:101C5C00099B13701A0A4A701A0C8A700422944653
:101C6C00049A1B0ED370039B029A01330393E24434
:101C7C00531E002A00D1A5E00293D1E7039B4446F2
:101C8C00DAB21B0ADBB231E701333B42CDD00E276F
:101C9C00CBE700200023002228E74346002B33D05B
:101CAC004B461C8A09AB1F0007E0002C00D1F1E564
:101CBC002B78013C002B00D0ECE539000E20FFF70F
:101CCC00A1F80228F1D0012800D0E3E5099B059981
:101CDC001A0A0B704A701A0C1B0ECB700B1D8A70F3
:101CEC000593D7E54B469B6805991A0A0B704A7009
:101CFC001A0C1B0ECB7000230793013398460B1D57
:101D0C0056468A700593B5E5079B002B00D1C1E5BB
:101D1C004B461C8A07E0002C00D1BBE52B78013C1C
:101D2C00002B00D0B6E500210E20FFF76BF802283F
:101D3C00F1D0AFE50200060014040220A49B0020A1
:101D4C0008000200060002000300020061460029A0
:101D5C0041D149464646019C002C1AD0002E18D081
:101D6C00826AD21B9342F7D8FFF7CEFB062154466A
:101D7C000A40002A07D1002D01D1FFF7C5FB002C2A
:101D8C0001D1FFF7C1FB816AC91B8B42F1D8FFF768
:101D9C00BBFB002DE4D10029E2DBFFF7B5FB494684
:101DAC006446002E01D0002C03D1002901DBFFF783
:101DBC00ABFB826AD21B9A42F3D3FFF7A5FB00233D
:101DCC001A0093E65146039B4446DAB21B0A059867
:101DDC00DBB204918AE624214D464646019C0A401A
:101DEC00002C07D0002E05D0816AC91B8B42F7D876
:101DFC00FFF78AFB002AF7D1002DF5DBFFF784FBF8
:101E0C0000231800029345E5014CFFF7EBFAC0469E
:101E1C0002000200F8B503787F2B04D0FFF72AFAF2
:101E2C0005002800F8BD0B7044780A4D861C8F1CE9
:101E3C004C70002CF5D039003000FFF71BFA030C66
:101E4C002D180004000C013CF6183F18002CF2D1A0
:101E5C00E7E7C046020002003D210D4B10B559606A
:101E6C0000210022197364211A805A610132196110
:101E7C001A8302205E3901F0C7F90621032001F014
:101E8C00C3F900220121032001F0E0F910BDC04686
:101E9C006CA40020037801480B707047010001000E
:101EAC00024B9C466144890001607047400000343D
:101EBC0010B5040000F022FD01002000FFF7F0FF38
:101ECC0001235B426360BFF35F8F10BD10B504004C
:101EDC0000F014FD01002000FFF7E2FF01235B423C
:101EEC00636000232372BFF35F8F10BD10B5040035
:101EFC00012000F00FFD044B9C46604480002060E4
:101F0C00BFF35F8F10BDC0464000003483680B48A0
:101F1C0010B5844661446244090112019A1859189B
:101F2C0054684B6801209C4201D802D00020C0B2FA
:101F3C0010BD12680B689A42F9D8F7E7FFFFFF0F44
:101F4C00074810B50268EFF3108172B61368002BC6
:101F5C00FCD0BFF35F8F04F0E7FF0020002110BD21
:101F6C00D0020120F8B557464E464546DE46E0B550
:101F7C0099460CAB1C780DAB1B78060090469A4624
:101F8C000768002C11D1BC7B002C42D065003B684B
:101F9C002D19033D59194B78BB73002B00D1FB73E2
:101FAC0000238B704B700B7004E065003B682D199F
:101FBC00033D5919B2682A4B94464246E3181B015B
:101FCC0063441A604A465A600A9A9A600B9ADA601D
:101FDC0000238B704B700B707B7B9B46002B2BD0A4
:101FEC0022005946B8687B6898473A68002816D092
:101FFC005B4658465B005B445519033BA870D118EF
:10200C00D35C002B00D06B705B460C707B73A345CC
:10201C0013D0F0BCBB46B246A946A046F8BD5B4601
:10202C005B005B44033BD3189C705119525D002A32
:10203C0000D05A705B460B707C7342464B46307D29
:10204C0000F032FB051E06D05346002B03D12100B5
:10205C00306801F09BF80E9B002BDAD01D70D8E78E
:10206C00FFFFFF0FF0B5DE4657464E4645460023B0
:10207C00E0B58BB00893674B8200D45800239B4685
:10208C00099000F097FA626806000F00EFF31085D4
:10209C0072B61368002BFCD0BFF35F8F23689C468D
:1020AC005B7B9946002B00D169E0A2685A4B9046A5
:1020BC004B441B01984443461A685B681000190096
:1020CC00801BB941002900DC63E0099800F0ECFAB0
:1020DC0000230022984600230692079300239A4679
:1020EC006368BFF35F8F5A461A6085F310885346B6
:1020FC00002B08D10028C4D10BB0F0BCBB46B246B3
:10210C00A946A046F0BD089B414618024B46184311
:10211C00D047626806000F00EFF3108572B61368A3
:10212C00002BFCD0BFF35F8F002F50DB33003B4301
:10213C0002D02369002B61D12368D97B002907D0F9
:10214C004A00521819688C4649466244033A517049
:10215C009A7B002A01D14A469A734A46DA734B4657
:10216C00E168013BCA5C0132CA545B462361636877
:10217C00BFF35F8F5A461A6085F3108881E70023FE
:10218C0000229846002306920793002300209A46CB
:10219C00A6E7002902D1002800D096E7002160466E
:1021AC0000F072FF43461A685B6806920793434639
:1021BC009B689A464346DB689846E3684B44013B70
:1021CC001B7808931B0203432361002088E72369D3
:1021DC00002BB1D0069A079B921BBB41002B15DB41
:1021EC0059460491012103914946029141460191BE
:1021FC00514620000091FFF7B5FEB6E700F0DAF982
:10220C0032003B0012184B41002BE9DA0122034B40
:10221C005242E5E7ECFF0020FFFFFF0FFFFFFF7FBF
:10222C0010B5144C6368002B04D00A211248FFF738
:10223C0037FE10BD2300114A1021206800F03EFE2D
:10224C00032000F0ABF9032000F098FA03200C49AE
:10225C0000F0E4F900F052FB0A4B9C460323237573
:10226C00D0231B061B6860446375074B80006060BD
:10227C00DC60DAE7849F0020D0020120BD1C002026
:10228C00151E002040000034ECFF00200048704771
:10229C00849F0020F0B54E464546DE465746E0B5D5
:1022AC0085B0019310AB1B7806000393002399466D
:1022BC00984600927268EFF3108B72B61368002B7D
:1022CC00FCD0BFF35F8F3568AC7B002C3DD0670032
:1022DC002B683F19033FDB195A78AA73002A00D1E7
:1022EC00EA73B168474A8C4600980199A21812010A
:1022FC006244106051600E9991600F99D160424612
:10230C009A705A701A706B7B9A46002B67D0220019
:10231C001900A8686B6898472A68002852D0534661
:10232C0050465B005344D719033BB870D118D35CAB
:10233C00002B00D07B7053460C706B7354454FD000
:10234C00F3681B19013B187800E000207368BFF399
:10235C005F8F42461A608BF31088002C4FD04B468F
:10236C00002B08D10002204305B0F0BCBB46B2469E
:10237C00A946A046F0BD039B002B3ED00E9B00202F
:10238C000F999847030004000D000B4335D000292A
:10239C000ADA009A019B121BAB4100920193002BAD
:1023AC000ADB039B994685E700F004F924184D419C
:1023BC0000940195002DF4DA0123134C5B42009339
:1023CC000194EEE753465B005344033BD3189C70D7
:1023DC00D119D25D002A00D05A7053460B706C7321
:1023EC00307D009A019B00F05FF981460028A7D050
:1023FC002100306800F0CAFEA2E70020B4E70120FB
:10240C004042B1E7FFFFFF0FFFFFFF7FF0B5EFF397
:10241C000583CE46474680B505000C0085B0002BE1
:10242C0012D02C4A0020536A9C4203D8926A013085
:10243C00AA4204D305B0C0BCB946B046F0BDE01A00
:10244C00421E9041C0B2F5E7234E02930193234BF9
:10245C000200009330000B00FFF71CFF031EE0DDB1
:10246C0020BF7168EFF3108772B60A68002AFCD09F
:10247C00BFF35F8FDAB294463068427B62451DD061
:10248C00FF221A405100894601689144884649460A
:10249C00414403398978002913D0F1681B0A884616
:1024AC004244013A1278DBB29A420FD07368BFF300
:1024BC005F8F00221A6087F31088B2E7FF221A4060
:1024CC00EBE732699342F1D13161EFE7614600F0FD
:1024DC005DFEEBE700400540849F0020F11C0020CE
:1024EC00F0B5EFF30582D6464F4646461000C0B510
:1024FC001038EFF3108872B6214C2368002BFCD0F7
:10250C00BFF35F8F0123190081401E4D1F006963CB
:10251C00AA461D4D29601D4D2E78AC463500C54090
:10252C002F402B4209D1BFF35F8F276088F31088AF
:10253C00E0BCBA46B146A846F0BD5346144D5F6A9E
:10254C0083005D59AF420ED3124A8E439B586246AC
:10255C001670BFF35F8F0022226088F31088002B67
:10256C00E6D09847E4E70C4B92009C466244136813
:10257C001360BFF35F8F0023236088F31088D7E7C5
:10258C00280100D0004005403C7005401D0402208D
:10259C00D402012038FA0020D03F054010B50100CC
:1025AC00024A034800F02CF910BDC046249C0020C0
:1025BC001A040220034B596A0A00986A596A8A4223
:1025CC00FAD170470040054070B504000D00124A66
:1025DC00536A1900966A536A8B42FAD1300019007B
:1025EC0024184D41AB4211D80ED02B000A494A6A2F
:1025FC009A42FCD307D1084A02E0516A994202D1AF
:10260C00916AA142F9D370BDA642EED901230124EF
:10261C006442E5175B42E9E70040054070B50400F1
:10262C000D00EFF3108672B61A4A1368002BFCD01B
:10263C00BFF35F8F002D1BD0200000F08DF91649E1
:10264C0081420AD0200000F08FF90121200000F017
:10265C0071F90123A340114A1360114BA400E550FA
:10266C00BFF35F8F00220B4B1A6086F3108870BD8E
:10267C000B4BA200D5500122A2400A4920000B7836
:10268C0093430B70044900F08DFA0021200000F0F8
:10269C0051F9E5E7280100D091220020386005406F
:1026AC0038FA00201D040220F0B54F46D6464646A7
:1026BC00C0B507002C4C616A0D00A66A616AA9427C
:1026CC00FAD18B4208D805D00120E0BCBA46B146FD
:1026DC00A846F0BDB242F7D9EFF3108A72B6234880
:1026EC0001680029FCD0BFF35F8F0125BD40204954
:1026FC001D4C8846097889462943C9B28C46414607
:10270C0060460870391D1B48890065630A51B90081
:10271C000B50216A0020294219D0616A0800A66A70
:10272C00616A8142FAD18B4219D801D1B24216D8D2
:10273C00CC4516D00C4B1F201D625D630123074056
:10274C00BB400D4A1E38136043464A461A70BFF30D
:10275C005F8F0022054B1A608AF31088B5E70020C2
:10276C00F5E70120F3E7C04600400540280100D002
:10277C001D040220D402012080E200E0EFF3108C53
:10278C0072B60A490B68002BFCD0BFF35F8F012394
:10279C008340074A0748136202789A430270BFF3DA
:1027AC005F8F00230B608CF310887047280100D0DA
:1027BC00004005401D040220024B18688007C00F22
:1027CC007047C04600C006408023DB051868000F28
:1027DC007047C046EFF3108072B6034A1368002BA3
:1027EC00FCD0BFF35F8F70472C0100D0BFF35F8F1D
:1027FC000022024B1A6080F3108870472C0100D025
:10280C0070B5EFF3108C72B60D4D2B68002BFCD00D
:10281C00BFF35F8F0724CB08C618C05C01230C40A4
:10282C00A3401C000440034207D103433370BFF3A1
:10283C005F8F2C608CF3108870BD100001F0FCF8D9
:10284C002C0100D0F8B54746CE46884680B5EFF34C
:10285C00108C72B6214D2C68002CFCD0BFF35F8F0E
:10286C009A422CD8D4080727055D06190124174075
:10287C00BC402C421FD007210127894609E0D4080F
:10288C00055D06194C4639001440A1400C00294244
:10289C0011D001329342F2D201204042BFF35F8F3C
:1028AC0000220E4B1A608CF3108800280FDBC0BC82
:1028BC00B946B046F8BD2C4310003470EEE7BFF3B8
:1028CC005F8F00232B608CF310880120404243461D
:1028DC00002BECD0089801F0AFF8C0462C0100D0CA
:1028EC000021044B044ABFF35F8F02C39342FAD119
:1028FC007047C046000100D0800100D0044A107817
:10290C00431CDBB2172B00D9102313707047C04641
:10291C00AC9F002000B5054B83B00100009318223A
:10292C001F230348FFF78EFF03B000BD489C002017
:10293C005CFB002001238340002904D0034A136070
:10294C00034A13607047034A1360FBE780E200E020
:10295C0000E100E080E100E0024B10309B68800059
:10296C00C058704700ED00E070B50D00EFF3108615
:10297C0072B60F4A1368002BFCD0BFF35F8F0D4B60
:10298C0010309B6884001B590B4A934203D09D4224
:10299C0001D001F06FF8074B9B681D51BFF35F8F9F
:1029AC00BFF35F8F0022024B1A6086F3108870BD54
:1029BC00240100D000ED00E0CD010010F0B5574629
:1029CC004E46DE464546E0B585B00600029117003E
:1029DC00EFF3108B72B6674A1368002BFCD0BFF371
:1029EC005F8F0025644B5D579A46002D00DAA4E0FA
:1029FC006B00624C03935B199B009846A146C14443
:102A0C004B4652469B79103613705D4BB2009B6857
:102A1C00019299580B1B2F2B34D95A4B994200D049
:102A2C00A4E0039B584A9C46584B6544AD00635345
:102A3C00434602336519E418554B0121043B1B1B1B
:102A4C001B055B0D13436B80524BEF71AB80FF2367
:102A5C00AB71029BAB604B460B431900484B019A80
:102A6C009B689950BFF35F8FBFF35F8F0022414B80
:102A7C001A608BF3108805B0F0BCBB46B246A94671
:102A8C00A046F0BD01200A008243D379BB422FD867
:102A9C0045464E46130040491B1B5B415943090DEB
:102AAC003A4B63533A4B02356519043B5B1B1B05D0
:102ABC00354D5B0D2B4373800426B446E0444444EF
:102ACC00131F1B1B4C46A17102991B05A1604946A3
:102ADC005B0D2B43A380314BE77101431360BDE7C2
:102AEC005800C01880002018C679BE422BD90200AD
:102AFC000623D356002BF3DA101D82462848804655
:102B0C0004267642B446E14450464E46361A300509
:102B1C00400D824656461C48957106439680039A92
:102B2C00944665441D4AAD00641922604246A37167
:102B3C00029BA280E771A36090E700F09BFF002549
:102B4C0053465D5754E7101D82469088400500158A
:102B5C0084464046D444664604302018301AE02699
:102B6C000005400D360230438046C9E700F082FF75
:102B7C0057E7C046240100D01B040220B09F002060
:102B8C0000ED00E0CD01001000E0FFFF00A1FFFF11
:102B9C00E09F002001BDFFFFAAAA0000014880476A
:102BAC0001BD0000F0B5DE4657464E464546E0B541
:102BBC000C0083B0EFF3108972B6584A1368002BDF
:102BCC00FCD0BFF35F8F564B9A68030010339F0005
:102BDC00D559544A9046954232D0A54243D0524ED4
:102BEC00AA1B2F2A2CD801228240924651464F4ACA
:102BFC0012681140019151464D4A1160BFF35F8F2D
:102C0C00EFF305829346002A33D101232A009A431D
:102C1C0093689C4208D177E04B005B189B00F3183B
:102C2C009968A1422AD01A00062151560029F3DADC
:102C3C00019B002B19D052463E4B1A603B4B1A603D
:102C4C00374B9B68DD51BFF35F8FBFF35F8F002263
:102C5C00324B1A6089F3108803B0F0BCBB46B24605
:102C6C00A946A046F0BD1500EAE75246304B1A6063
:102C7C00E6E79342C9D000F0FDFEC6E7062159569F
:102C8C00002921DB4A005018800034188046A068C7
:102C9C009860E079D871062020569871002824DBC2
:102CAC00A488F01A6405241544440019E024000596
:102CBC00400D24022043988052181F4B9200B618E6
:102CCC001A781970B271B3E7594600290FD1FF3148
:102CDC0091711A49918018490A789A71184A9B1B6C
:102CEC005B415A43120D0A70A2E71648E3E7164AF5
:102CFC001649D21A083A5002400D014399801449E2
:102D0C0052080A43DA8093E7062151561300002932
:102D1C00B8DA5A46002AEAD14546DCE7240100D04D
:102D2C0000ED00E0CD010010B09F002000E100E0BC
:102D3C0080E100E080E200E01B04022001BDFFFF07
:102D4C00AAAA000001BD0000EA9F002000F0FFFFCE
:102D5C0000F8FFFF032310B50400074A18409446FF
:102D6C00C0009C43FC3383406444226881409A43F6
:102D7C0013000B43236010BD00E400E070B5EFF3CB
:102D8C00058101240443EFF3108C72B6214A1368B9
:102D9C00002BFCD0BFF35F8F1F4B05001F4AED1AB1
:102DAC006D416A43120D1E4D8900AE6852B27658C1
:102DBC00A6421CD00621595691421CD012215956BC
:102DCC00914222D01E215956914220D02A21595687
:102DDC000324914210D0134B19781A708171BFF3F0
:102DEC005F8F00220B4B1A608CF3108870BDAB68A0
:102DFC000D4C5C50EFE700246100091989005B1849
:102E0C00FF21997109499980E5E70124F4E702242F
:102E1C00F2E7C046240100D0B09F0020AAAA00000F
:102E2C0000ED00E01B040220CD01001001BDFFFFEE
:102E3C00054B064A1360064A136053609360D360D7
:102E4C0013615361936170478080808000E400E0DF
:102E5C0004E400E070B5050014001600002915D03C
:102E6C000C00002A12D080686B68984729680028EB
:102E7C000ED073009B196200033B1219CB18033A56
:102E8C009C7088188A5C002A15D10670200070BDD1
:102E9C0063001B197200033B9219CB18033A9E7006
:102EAC0088188A5C002A02D104703400EEE75A704C
:102EBC0004703400EAE75A700670E7E730B58360B7
:102ECC000023CCB243730133047342608373C47325
:102EDC000D000068012C06D9421C0133DBB21370C3
:102EEC0003329C42F9D1FF2129404B005918002391
:102EFC0040180338437030BDF8B5CE46474606003F
:102F0C000C0080B5002907D04D0003686D18033DF7
:102F1C005A195778002F04D12000C0BCB946B046CE
:102F2C00F8BD7900C9190339884643445978894654
:102F3C0000215970517073683A00210080689847DD
:102F4C003368002814D042469A18947059195B5D66
:102F5C00002B00D053700F70270049463000FFF74C
:102F6C00CBFF390002003000FFF774FF0400D3E7F9
:102F7C00424641465D19AF709A185B5C002B00D03D
:102F8C006B701470E9E7C046F0B557464546DE460F
:102F9C004E46E0B50D006B0001685B19DF1E0400A6
:102FAC00C85D83B00192CA19002850D043001B1889
:102FBC00033BCB185E78B446002E1AD1019E002E2E
:102FCC0042D0E67B002E04D073009B19CB18033B38
:102FDC005D70A37B002B00D1A573E57300282FD166
:102FEC000023537003B0F0BCBB46B246A946A046C2
:102FFC00F0BD72006244033A89184A789046002268
:10300C004A7091465A70010032002000FFF722FFEF
:10301C0043468246002B07D05B0021684344033BA8
:10302C00CB185A78002A16D1424651462000FFF799
:10303C0011FF2168019BCA19002BC2D10028CFD0E7
:10304C0043001B18033BCB1800219970C8E7019B68
:10305C00002BB6D1C4E75000801803380918487803
:10306C00834648464870587041462000FFF7F2FEF0
:10307C00594680462000FFF73FFF414602002000E2
:10308C00FFF7E8FE8046CFE7F0B557464546DE46EB
:10309C004E46E0B583B00191457B04006B0000689F
:1030AC005B19DF1EC15DC219002952D04B005B18A1
:1030BC00033BC3185E78B446002E1CD1019E002E33
:1030CC0044D0E67B002E04D073009B19C318033B3D
:1030DC005D70A37B002B00D1A573E573002931D162
:1030EC00002328005370617303B0F0BCBB46B2469A
:1030FC00A946A046F0BD72006244033A801842789B
:10310C0090460022427091465A7020003200FFF720
:10311C00A1FE43468246002B07D05B002168434446
:10312C00033BCB185A78002A17D14246514620004F
:10313C00FFF790FE019B01002068C219002BC0D143
:10314C000029CDD04B005B18033BC31800209870AE
:10315C00C6E7019B002BB4D1C2E75000801803389E
:10316C0009184878834648464870587041462000F4
:10317C00FFF770FE594680462000FFF7BDFE414622
:10318C0002002000FFF766FE8046CEE770B5040013
:10319C0000292CD0437B8B422ED005684800401868
:1031AC00033828188278002A21D053009B18033B3F
:1031BC00EA5CEE188A4202D11BE0002A08D05300C8
:1031CC009B18033BEB185A788A42F6D142785A7016
:1031DC0000230122837043702000FFF7D5FE617B32
:1031EC0002002000FFF736FE6073012000E0002093
:1031FC0070BD43783370EBE701221900FFF7C4FE72
:10320C0060730120F4E7C046094A830094464022CB
:10321C00634410B51C68C0006240C0241440802276
:10322C00520113431C60034B9C466044416010BD2B
:10323C0004C0014000400140034BC0009C46604468
:10324C0043681F2018407047004001400A4B800023
:10325C009C4604236044002901D00C230821002A39
:10326C0000D10B00026853400C221A4080235B01F2
:10327C00184302607047C04604C00140074BC000B1
:10328C009C466044036809045940C0239B021940C2
:10329C0080235B01184301607047C0460440014025
:1032AC00074BC0009C466044036809035940C02387
:1032BC009B01194080235B01184301607047C04695
:1032CC00044001400123D022834012069362936193
:1032DC00094A83009446402263441968C0004A405E
:1032EC00C02111408022520113431960034B9C46AC
:1032FC00052360444360704704C001400040014016
:10330C00F8B5CE464746040080B506200E0000F006
:10331C00A3FA051E51D0524B5249E21853425A415E
:10332C008023DB039C4692054F4B62441A604F4B43
:10333C001A6010008B689843FBD1494B8021E3182D
:10334C005A4253414A4A5B0049009952062000F008
:10335C0083FA3100C00000F0F3FBC30932D14022E4
:10336C00012190466162A362256BEB0736D42700DE
:10337C008026E36A00232C3776013E433360062017
:10338C00256300F069FA4146800000F0D9FB236BFD
:10339C0005009846DB073BD46022E36A5A406E2353
:1033AC001340336043462363802310229B013B432D
:1033BC001A60304B23630323A3642800C0BCB946B6
:1033CC00B046F8BD2C4A93423FD900232B492C4AD6
:1033DC006162A362256B9046EB07C8D52200C0231F
:1033EC0030329B011343234A06201A60666AA26A94
:1033FC00B601B61800F030FA224900F0A1FBB60273
:10340C000100300000F09CFB0021FFF7DDF8AEE777
:10341C002200C02330329B011343164A06201A6047
:10342C00636AA26A9B019946914400F015FA4B46D7
:10343C0014499B02994600F083FB0100484600F0BA
:10344C007FFB0021FFF7C0F8A6E77F229901884691
:10345C0010400130400819008044030082E7C04648
:10346C000080FCBF00C0004000E0004000F00040C5
:10347C001003012001030000FEFF0000FFFF00000D
:10348C00C0FF3F004E0E0000064B9C46604443427A
:10349C0058418023DB039C468005034B6044186035
:1034AC007047C0460080FCBF00E000400539013A7F
:1034BC00F8B5D2004C0105001443002B05D00222B4
:1034CC002243012B2AD105331C432E6BF3070BD45B
:1034DC00EA6A802362406E2414402A005B012C327D
:1034EC0013431C602E63F8BD2A00C02330329B01AD
:1034FC0013430B4A06201A606F6AAA6ABF01BF18F1
:10350C0000F0AAF9074900F01BFBBF0201003800CC
:10351C0000F016FB0021FFF757F8D9E71400D4E7A9
:10352C00010300004E0E0000F8B5066B04000D0000
:10353C00F3070BD40123E16A22004D401D40802388
:10354C002C325B0113431D602663F8BD0200C023BF
:10355C0030329B0113430A4A1A60476A826ABF01E0
:10356C000620BF1800F078F9064900F0E9FABF020E
:10357C000100380000F0E4FA0021FFF725F8D9E744
:10358C00010300004E0E000030B50C2083B000F09B
:10359C00B9F9FFF711F900280ED0994B994A1A6026
:1035AC005A609A60DA601A615A619A61DA611A6239
:1035BC00954A5A6203B030BD944CA06700F0AAF94A
:1035CC000122934B1A60636C012BFCD10322914BAB
:1035DC001A608E4A936B012BFCD1013301218E4A68
:1035EC008E480093043300F03DF905238C4A009378
:1035FC0001218C4800F036F98B4B5A68FF2A02D80F
:10360C00802252005A6080227D4C824B216912012B
:10361C00854D1A60002907D0606900F091FA431CAF
:10362C005800C0180338FDD2E0217F4B02201A68E5
:10363C001140802252012A4311601968484003212D
:10364C000140116004219A681142FCD08022802133
:10365C0092012A4309011160802252005A60734B77
:10366C002361734B5968FF2900D85A600321684ABB
:10367C006F4B116002399A681142FCD0E0201A6835
:10368C001040802252011A431060186848400321F0
:10369C0001400220116066498A681042FCD08022E9
:1036AC0092011343802212011A608022614B520056
:1036BC004A606361604B5968FF2900D85A608022C8
:1036CC005E4BE16912015C4D1A60002907D06069FC
:1036DC0000F036FA431C5800C0180338FDD2E02223
:1036EC0055490B681A4080235B012B431A608023D9
:1036FC0080229B012B4312011A608022414B520005
:10370C004A60E3614E4B5968FF2900D85A60802209
:10371C004C4B216A12014A4D1A60002907D060698E
:10372C0000F00EFA431C5800C0180338FDD2E022FA
:10373C0043490B681A4080235B012B431A6080239A
:10374C0080229B012B4312011A60802380225B0094
:10375C004B602C4BD20223623B4B5968914200D2F6
:10376C005A608022394B616A1201374D1A60002968
:10377C0007D0606900F0E4F9431C5800C018033806
:10378C00FDD2E02230490B681A4080235B012B43A9
:10379C001A60802380229B012B4312011A60802324
:1037AC00DB024B60184B6362294B5A68FF2A02D824
:1037BC00802252005A608022264BA1691201244DAE
:1037CC001A60002907D0606900F0BAF9431C580050
:1037DC00C0180338FDD2E0221D490B681A40802323
:1037EC005B012B431A60802380229B012B43120127
:1037FC001A6080235B004B600E4BA361DAE6C04677
:10380C0060FB0020006CDC021BB700000080004055
:10381C003CB0004030B00040002F6859008002409E
:10382C00008C864700C0024030800040001BB7006F
:10383C003C800040405973075480004054B0004015
:10384C006080004060B000406C8000406CB0004074
:10385C004880004048B00040014B8000C058704781
:10386C0060FB0020F8B5040021481D0017000E0075
:10387C0000F066F90100380000F062F9069B29049B
:10388C001B0319432368002B20DB1A4B1A4DE2183B
:10389C0053425A4180235B019C461203174B6244EE
:1038AC001A60174B1A601700AB689F43FBD1C022FC
:1038BC00231D92011A4321232660A0601360236804
:1038CC00002BFCDA0823E1601360F8BD3F2322686B
:1038DC001340B342D9D1A3681B051B0D8342D4D12D
:1038EC00EE22E368D20213408B42CED1EDE7C04604
:1038FC00001BB7000040FDBF00C0004000E00040CE
:10390C0000F000408023024A9B000343D3627047BF
:10391C0000800540AA23064A1B0113602F2305498A
:10392C00D360054B19605368002BFCDA7047C04616
:10393C000040024000B0FA00006002402C4B2D4ABF
:10394C0070B51A602C4A2D4B2D491A6014008B68E7
:10395C009C43FBD12B4D2C4EB54208D2013E761B1D
:10396C00B60808CD984723000134B342F9D1FFF7CC
:10397C000BFE264A214B1A60214A9368DB43DB017C
:10398C00DD09002BF9D14022214B224C224E9A67A3
:10399C005A671A67DA66B44208D223682000002BF3
:1039AC0020D00C34FEF792FAB442F6D31B4E1C4CCA
:1039BC00C022A168300000F0CBFBA660FEF790FFA0
:1039CC00FFF736FAFEF72CFC164C174EB44208D211
:1039DC00013E361BB60808CC98472B0001359E4299
:1039EC00F9D170BD0834FEF763FAB442D5D3DDE7E4
:1039FC0000E00040BFCDFBFEFE7F3C0000F000402D
:103A0C0000C0004074A0002084A00020FFFFFF0134
:103A1C0000F0014064A0002074A0002000000020F1
:103A2C0000ED00E084A0002090A0002000BEFDE787
:103A3C0010B5FFF7FBFFC0460FB400B5084883B0C4
:103A4C0000F0B8FC049B002B07D005A918000191CD
:103A5C0000F01EF8034800F0ADFC0120FFF7E6FF74
:103A6C00649C0020CC99002010B50148FFF7E4FFBE
:103A7C00749C002010B50148FFF7DEFF849C0020E9
:103A8C0010B5002800D110BD00F048FCFBE7C04683
:103A9C0010B5094A0300146884B0002C08D0012228
:103AAC0000910648524203A9A047012004B010BD62
:103ABC0000F080FC0020F9E7E0FF00203138002006
:103ACC0001480421014B184700A00020AD3800200C
:103ADC00014B1B681847000000A00020142310B5F0
:103AEC000100188804331B88984710BD162310B5A5
:103AFC000100188802331B88984710BDF8B547465B
:103B0C00CE4680B50F1E19D01423994604330400F9
:103B1C000025012698464B461888434621681B8889
:103B2C00984701C4431E9841013540420640AF42BC
:103B3C00F1D13000C0BCB946B046F8BD0126F8E75B
:103B4C00114A936F9B0813D210665166002905D059
:103B5C00FFE7FFE7FFE7516F106F704704B50028D0
:103B6C0001D00020C04305F043F9002104BDC0463C
:103B7C00F0B5146E556E576F166FFFF7E5FF1466B0
:103B8C00556657671667F0BD000000D094464A4A48
:103B9C00926F9208624601D228E0C046F0B5464EBC
:103BAC00346E756E776F366F00F020F89446424A8B
:103BBC0014665566576716676246F0BD94463E4AD2
:103BCC00926F9208624601D254E0C046F0B53A4E6C
:103BDC00346E756E776F366F00F04CF89446364A3B
:103BEC0014665566576716676246F0BD002B24DBDA
:103BFC0011D000293EDA00B5C943404200D1013151
:103C0C0000F038F8C943404200D10131DB43524245
:103C1C0000D1013300BD002AEBD1002801D10029CD
:103C2C0005D00020C90FC90701D1C043410800B518
:103C3C0005F0DEF80022002300BD00B500290ADBE8
:103C4C00DB43524200D1013300F014F8C943404227
:103C5C0000D1013100BDC943404200D10131DB43E9
:103C6C00524200D1013300F005F8DB43524200D13F
:103C7C00013300BD002923D1002B18D1002A0CD010
:103C8C00BC460D4F38667A6600210023FFE7FFE73C
:103C9C00FFE77A6F386F67467047002801D00748F6
:103CAC00010000B505F0A4F80022002300BD0200BD
:103CBC000B00002000217047000000D0FFFFFFFF29
:103CCC00002B00D0BFE0130C28D1002AE7D080B421
:103CDC00114F39667A66FFE7FFE730B4040C7B6F4F
:103CEC00396F1B0423433B667A66FFE7FFE7FFE768
:103CFC00C04684B27B6F3D6F1B0423433B667A66E0
:103D0C00FFE7FFE7C04600232C042D0C7A6F386FB9
:103D1C0000196941B0BC7047000000D0F0B5944662
:103D2C000025140E01D112020835140F01D1120115
:103D3C000435940F01D192000235D40F01D15200F9
:103D4C000135D40B0134254F7C66254C3C660E0C9A
:103D5C0093B2FFE7FFE7FFE73C6F6643360C770350
:103D6C00BE467343DF0B5B04C01AB941130C73439B
:103D7C00DB18C91ACE086643360CB64493B27343AB
:103D8C001F0F1B01C01AB941130C73431F0B1B05EA
:103D9C00C01AB941860D8F023E436643360C092D7D
:103DAC0024DB520A7243801A7703460A6643360CA8
:103DBC0016235B1BDE40DF40BF1964466643821B43
:103DCC007046043506330100D940A840C01900D311
:103DDC000131A24206D20023F0BD0000000000D049
:103DEC00FFFFFFFF121B0130F3D3F1E709277F1B05
:103DFC00FE406446A2B27243801A00D20139220CF2
:103E0C007243130C1204821A99410B00704604354C
:103E1C0013370100F940A840801900D30131002B61
:103E2C0002D1A2420AD2F0BD013000D30131121BE3
:103E3C00FAD2013BF8D1A24200D2F0BD013000D33E
:103E4C000131121BF7E7F0B51C0C00D080E00CB46C
:103E5C0000251C0A04D11B02160E3343120208352E
:103E6C001C0B04D11B01160F3343120104359C0BA0
:103E7C0004D19B00960F334392000235DC0B02D128
:103E8C0092185B4101351C00971864410134464F70
:103E9C007C66464C3C660E0CFFE7FFE7FFE7C0462E
:103EAC003C6F6643360C7703BE4697B27743C01B14
:103EBC0000D20139C01B00D201399FB27743C91B14
:103ECC00C91B170C77437E04FF0B801BB941CE082E
:103EDC006643360C0C2D33DBB644120B1F053A43EC
:103EEC001B0B97B27743C01B00D201399FB27743AB
:103EFC00C91B170C77433E043F0C801BB941860D40
:103F0C008F023E43664329277F1BFE400C3D7746BC
:103F1C00AF40BF1930BCA2B2ABB272437343801A2C
:103F2C009941220C7243130C1204801A994102001D
:103F3C000B000137001BA941F9D2781E0021F0BDFE
:103F4C000C277F1BFE4077467F0BAF40FF19E0E745
:103F5C0000245D1C07D0144F7D663966FFE7FFE730
:103F6C00FFE7FFE73C6F95B29EB265436643401B8B
:103F7C00B141150C1E0C6543664336042F0C3E43B1
:103F8C002D04401BB141994204D202000B002000C9
:103F9C000021F0BD01D19042F7D3801A9941013430
:103FAC009942F2D3F6E70000000000D0FFFFFFFFBC
:103FBC00132370B51D78012D15D010DD1C48FFF7AB
:103FCC0095FD1C4C01008022200000F0C1F8022D50
:103FDC0006D01948FFF782FD184B186070BD154CC0
:103FEC00174BA364F5E7164B124C23606360A36078
:103FFC00E36023616361A361E36123626362A36293
:10400C00E36223636363A363E36323646364A36472
:10401C00E36423656365A365E36523666366A36652
:10402C00E36623676367A367E367A364D1E7C046CE
:10403C005344000090A100204C330000CC0201201E
:10404C00F53D002007B5604601880A0A0230DF2AD8
:10405C00FAD1C9B2820804D3028840880004104304
:10406C0000E00068014A5050039007BD90A1002069
:10407C0051434343C9188C46110C83B24B4310B4C3
:10408C00040C614392B280B2504362431C041B0C7B
:10409C00001910BC59411304120CC0185141614451
:1040AC0070470000132310B512481C78FFF71EFD53
:1040BC000100012C0AD003DD80220F4800F048F8E3
:1040CC000E48FFF70BFD0E4B186010BD0A4C542226
:1040DC00200000F03DF80B4B6365A365E365236698
:1040EC006366A366E36623676367A367E36723627C
:1040FC00E361E5E75346000090A200204C3300003A
:10410C00CC020120B93E002007B5604601880A0A9E
:10411C000230DF2AFAD1C9B2820804D3028840885F
:10412C000004104300E00068014A5050039007BDA2
:10413C0090A2002001480421014B184710A0002038
:10414C00AD380020014B1B681847000010A0002060
:10415C00014B5B681847000010A00020030010B54D
:10416C00080011001B68984710BDC046F0B54646C4
:10417C004F46D646C0B5437D80460E001700002B37
:10418C0046D0002A3FDD4B1E9946244B01250024C6
:10419C0000209A460DE04B461B5D0D3B5A425341A5
:1041AC00325DDBB20A2A0BD02B00013401359F4261
:1041BC001ADD002CEFD14346325D1B7D0A2AF3D168
:1041CC00002BF1D1A04204DA4346211A1B683018A7
:1041DC009847434650461B680221984701342800F3
:1041EC002B0001359F42E4DC874204DD4346391A3B
:1041FC001B6830189847F619013E33780D3B5A422C
:10420C00534142461375E0BCBA46B146A846F0BDD0
:10421C000368110030009847F5E7C046F49C002075
:10422C00F0B5DE4657464E464546E0B585B017001C
:10423C001C0006000D00FEF7BDF90023304A1218D1
:10424C004B41002B58DB2F4908008A4604F008FE2E
:10425C0001906B1C03D1300004F0CCFD0500002C48
:10426C0025D1294B9846294B1C68002C15D0002FC2
:10427C0020D1274F02E02469002C0ED02368002B9C
:10428C00F9D03B68002B01D0A342F4D120002A00C6
:10429C003100C0472469002CF0D1019B002B27D1A1
:1042AC0005B0F0BCBB46B246A946A046F0BD194BC2
:1042BC009846D8E7164B994602ABDF1D0A239B465E
:1042CC0002E02469002CE8D02368002BF9D04B467F
:1042DC001B68002B01D0A342F3D12A00310020002F
:1042EC00C0475B460122390020003B70C047E8E71D
:1042FC00504604F03FFED3E70122074B5242A2E79F
:10430C0040420F006CA000201D3F0020CCFB002081
:10431C00D4FB00200D3F0020FFFFFF7FF0B5CE4601
:10432C00474680B583B06B460600DD1D2870FEF74E
:10433C0041F900231A4A12184B41002B2BDB194967
:10434C000800884604F08CFD174B81461C68002C35
:10435C0014D0164F02E02469002C0FD02368002BD8
:10436C00F9D03B68002B01D0A342F4D120000122EC
:10437C002900FFF7FBFE2469002CEFD14B46002BE4
:10438C0005D1300003B0C0BCB946B046F0BD4046C4
:10439C0004F0F0FDF5E70122054B5242CFE7C04691
:1043AC0040420F006CA00020CCFB0020D4FB00206E
:1043BC00FFFFFF7F70B5040004F01CFD002301001B
:1043CC00050001222000FFF72BFF084B1C68002C76
:1043DC0006D06368002B05D098472469002CF8D1CF
:1043EC00280070BD2469002CF3D1F9E7CCFB002028
:1043FC000A4A1368002B05D10CE01A001B69103215
:10440C00002B07D09842F8D1002902D10369136020
:10441C00016170470029FCD01060FAE7CCFB00204A
:10442C00F0B50D1E15DD0E4B0D271A680D4B4519F9
:10443C00D31859424B410C495B005E5E2021047835
:10444C00A64207D093691942FCD101301460A842EE
:10445C00F5D1F0BD93691942FCD11760F2E7C04663
:10446C00180301200080FCBF1003012030B50400AC
:10447C000D1E26DD002010211B4B013C1A68936990
:10448C00194219D1013093691942FCD11368235494
:10449C008542F4D1154B1B68002B0CD05023936331
:1044AC00516B183B34320B401100802252010A43ED
:1044BC001360002815D030BD0C4B1B68002BEDD1C0
:1044CC00F7E70A4B1B68002B0BD050223821064B08
:1044DC001B689A635A6B3433114080225201134388
:1044EC00196003204042E6E71803012054FB00202A
:1044FC00064B10B51B68002B06D00021044A12682D
:10450C009163044A1068984710BDC04654FB0020C4
:10451C001803012058FB00201D4BF0B51A68C64645
:10452C0098461C4B0E00D31859424B411A4F14336A
:10453C001C00050000B53B68002807D0002B11D0EB
:10454C00164B3D601E6080BCB846F0BD002BF7D00A
:10455C00906300212000FEF7EDF920001049FEF7D2
:10456C0021FBEDE720000E49FEF7FEF901212000AA
:10457C00FEF7E0F94346502238211B689A635A6BC8
:10458C00343311408022520113431960D8E7C046DE
:10459C00180301200080FCBF54FB002058FB0020B6
:1045AC00A14200200C4B10B51B780C4B0C4C1B780B
:1045BC000C4B022100202360FEF726FE0221012075
:1045CC00FEF722FEE12120684902FEF799FE012147
:1045DC000548FFF70DFF10BD140300101803001061
:1045EC00180301200040034020A0002070B50C4EA1
:1045FC000D001C003060002A03DB02211000FEF7C6
:10460C0003FE002C03DB02212000FEF7FDFD290038
:10461C003068FEF775FE01210248FFF7E9FE70BD18
:10462C001803012020A0002010B5024800F00CF85F
:10463C0010BDC046A402012010B508220149FFF7A5
:10464C0087FD10BDA402012030B5002589B00400FF
:10465C000922002101A80095FFF774FD0922002111
:10466C0005A80495FFF76EFD4B236A466846137048
:10467C0004A90D2204F0CAFC15210822200069446B
:10468C00FFF766FD09B030BD10B501210520FEF71E
:10469C0051F910BD10B500220021024800F05AF962
:1046AC0010BDC046FCFB00208022024B5202DA6493
:1046BC007047C04600201150F0B5C64600B5060044
:1046CC0000F022F90C231B4DFF22AB6705201A4981
:1046DC00FEF774F940239846184C40220021200024
:1046EC00FFF730FD43460127238321210023144A81
:1046FC006770A260136063545F3161844146218707
:10470C00053963540F4A10496360E260A1620B6083
:10471C006362E26204F0DCFC80239B052F64EB6493
:10472C0090230A4A3000EA50FFF7BEFF80BCB8461F
:10473C00F0BDC04600001150E58F0020DCFB0020CE
:10474C0084001050000110508000105010D0010057
:10475C000B785B0602D14B78052B00D070478A781A
:10476C00014B1A60FAE7C04600001150F0B5C6467E
:10477C0000B54B790C791B0288782343CC787F21C8
:10478C00A4070140C509A20F4F001400324E7A193C
:10479C005201B218907001206840507000205B05E7
:1047AC005B0DD0701383D4768046CA00012D33D0B4
:1047BC002A488446880162448446B4446046826038
:1047CC0040461060002933D0254AC9009046624605
:1047DC00414451603F223F339343022C00D15B0094
:1047EC0020487A1901685201B218D1601E4ACB18C0
:1047FC00036051405340802288465201934228D88E
:10480C004346A4061C4380237F197F011B06F6191F
:10481C001C4373681C6011E0144884468801624490
:10482C008446B4446046826240461060002909D137
:10483C0000236D01761973600D4BF360012080BC71
:10484C00B846F0BD084AC9009046624641445162E0
:10485C00C0E7FFF70FF9D3E7DCFB00208400105012
:10486C0004001050E4FF0020000010508000105095
:10487C000001105010B504F02BFC10BD10B57F20BA
:10488C000C0020404000E409110000191A00034BF1
:10489C004001C01800F05EF8012010BDDCFB0020C8
:1048AC007F22130010B50B400A420BD0C90980229D
:1048BC00580040180649400140181201002104F02C
:1048CC00CFFF10BD02220348C909521A8266EEE7D7
:1048DC00DCFB0020002011507F22100010B5084096
:1048EC000A4200D110BD0023C909400040180449F8
:1048FC004001081800220349C37004F0B1FFF1E72E
:10490C00DCFB0020FFF7FFFF80220D4B520410B59B
:10491C001A600C4B0C491A6010008B689843FBD141
:10492C000A4C9C2200212000FFF70CFC8022002165
:10493C0052010748FFF706FC0923636710BDC04608
:10494C0000E0004000F0004000C0004000001150AA
:10495C000000105070B5837E04000D001600002B73
:10496C0017D10023E38201332000A682A3762561B0
:10497C0004F0D0FE002804D080219023084A89023C
:10498C00D150200004F0DAFE002805D00123237753
:10499C0070BD04F05FFFE4E7200004F08DFFF7E743
:1049AC0000201150F0B5C64600B5244E244A05002F
:1049BC0000243378234F002A32D0234A9046A34256
:1049CC0024D8E31ADBB2022B1DD85A00D318DB0013
:1049DC00FB185B682800984733780134E4B29A1CC2
:1049EC00A242ECDA194C532200212000FFF7AAFB5B
:1049FC001022FF21E01CFFF7A5FB20002022FF2145
:104A0C001330FFF79FFB80BCB846F0BD42461268DE
:104A1C00630094461B19DB006344002BD9D1F2E7E9
:104A2C0000247B6828009847337801340233183708
:104A3C009C42D7DC032CE6D0F3E7C04615040220D9
:104A4C0019100020249E0020E0A5002058B800205A
:104A5C00024B5878431E9841C0B2704758B800209A
:104A6C00024B18784007C00F7047C04658B800205A
:104A7C00034B1878FF38431E9841C0B27047C046AC
:104A8C005CA00020F8B5CE46474680B5344E0500F4
:104A9C0033780120FF2B03D0C0BCB946B046F8BD1B
:104AAC00532200212F48FFF74DFB2F4C2000FDF720
:104ABC00FFF92E4B1C602E4C20001430FDF716FA1B
:104ACC00200001F06BFE2B4B2B4F1C602B4B9846A0
:104ADC00002B04D03800FCF7C7FB294B186042466A
:104AEC0000243B78002A1ED0264A9046244A914640
:104AFC00A3422AD8E31ADBB2022B24D85A00D318CB
:104B0C00DB0043441B6898473B780134E4B29A1CA1
:104B1C00A242EDDA28003570FFF7CEFD2800FFF732
:104B2C00B3FD0120B8E7174B0024984643461B6899
:104B3C00984718239C463B7801340233E0449C424E
:104B4C00E8DC032CF2D10020A6E74A461268630089
:104B5C0094461B19DB006344002BD3D100209BE748
:104B6C005CA0002058B8002010B80020ACB8002081
:104B7C0040A00020B0B8002015040220191000201D
:104B8C00E0A50020249E002010B501F03FFB00287A
:104B9C0006D0044B186801F025FC01235840C0B224
:104BAC0010BDC046B0B80020F0B5DE4657464E46A4
:104BBC004546E0B58FB001F029FB002800D1C8E0D4
:104BCC00C84BC94F994618239A46053B9B46C74D7F
:104BDC000BACBB442E687269EFF3108172B613688C
:104BEC00002BFCD0BFF35F8FB1613000210001F0CE
:104BFC0017FC7269B369BFF35F8F0021116083F3F7
:104C0C001088002800D1A4E06378082BE2D84A462B
:104C1C009B00D3589F466368002BDBD0A068984755
:104C2C00D8E77F222179B04B0A4056009B19984651
:104C3C00C8098044404601233030C6789E43C67074
:104C4C00C67803339E43C670002A00D188E04346E1
:104C5C00A74ADB7C002A05D0A64A1278934270D36F
:104C6C009B1ADBB2022B74D85A00D218A24BD2007A
:104C7C009B181E6962792078A368B047AAE70122C5
:104C8C003B78012013433B7033230421FA5C8243AD
:104C9C00FA54FA5C8A43FA540133FA5C8243FA54AC
:104CAC00FA5C00208A43FA542378984600F074FC8E
:104CBC00602223791A40602A0AD0402A56D0DB069B
:104CCC00DB0E012B00D199E0022B68D0002B5BD0BE
:104CDC0020780021FFF7E4FD80212078FFF7E0FD2C
:104CEC0078E7814B1B78DB0700D473E7834B002BF1
:104CFC0000D16FE700E000BF6CE77B4B1A78D2075E
:104D0C0000D467E77E4A002A00D163E718780007D1
:104D1C00C00F00E000BF5DE72078FFF743FE00F016
:104D2C0031FC784B002B00D154E700E000BF51E779
:104D3C002078FFF737FE00F025FC22796A4B9A7039
:104D4C0048E75A00D218704BD2001B689B18002BF6
:104D5C008FD10FB0F0BCBB46B246A946A046F0BD01
:104D6C0062792078A36800F02BFC33E767480028B1
:104D7C00AED000F011FC012140460CAAFBF7AEFBB3
:104D8C00002800D026E7A3E7202A71D0002A9FD163
:104D9C006379092B9CD85E4A9B00D3589F4670239D
:104DAC00217A0B4294D10F330B405B00F818CE09DB
:104DBC0000934F4B8019C07C002B06D04D4B1B78B9
:104DCC00984200D2B0E0C01AC0B202286AD84300A0
:104DDC009C46494B6044C0009C46030063440193CD
:104DEC00002A64D0019EF3681800009300F0D4FBF5
:104DFC0001214046F3680CAA9847C1E7237A0F2B90
:104E0C0000D965E73A4AFB18DB78002A06D0394A04
:104E1C001278934200D27DE09B1ADBB2022B00D9B0
:104E2C0056E75E00F318344EDB00F618F06800F01D
:104E3C00B3FB01214046F3680CAA9847002800D028
:104E4C00C8E66022160023791E401A4200D03FE7C4
:104E5C0063790A3B012B00D93AE700F09DFB63799B
:104E6C000A2B00D155E140460CA900F015FBB1E628
:104E7C00237A0F2B00D92BE71D4AFB18DB78002A6D
:104E8C0006D01C4A1278934200D217E19B1ADBB26F
:104E9C00022B00D91CE75E00F318174EDB00F61846
:104EAC00F068A3E7002A00D012E700230193607991
:104EBC000223020002909A43012A00D1DBE0002871
:104ECC0000D005E7009B0AAAFB189E193036F37830
:104EDC0002329B07DB0F1380404602230CA900F023
:104EEC00F3FA77E6989D002058B80020B0B800205F
:104EFC001910002015040220249E00200000000040
:104F0C000000000000000000E0A500208D02002041
:104F1C00BC9D0020C44A5E00F3181668DB00F6182E
:104F2C00002E00D1D4E681E743009C46BE4B604482
:104F3C001B68C0009C46030063440193002AB6D052
:104F4C00002B00D04EE7C3E67B780AAA023213701E
:104F5C00404601230CA900F0B7FA3BE6E088030AAF
:104F6C00C0B20F2B00D9B3E6B0499A008A589746C5
:104F7C00A37904931A007B789A4207D07B78002B94
:104F8C0000D038E1049B002B00D0CBE0049B4046C2
:104F9C000CA97B7000F080FA1CE60CA800F002FB58
:104FAC004046A179FFF776FB02223B7813433B7016
:104FBC0010E6E388012B00D08AE608223B784046B5
:104FCC0013430CA93B7000F067FA03E6E388012B4E
:104FDC0000D07DE608223B78404693430CA93B70F9
:104FEC0000F05AFAF6E5022039780AAB9A1C8B06C7
:104FFC008908DB0F01400B436DE78D4B002B00D173
:10500C0066E6FBF7F5FA021E00D161E6D3789178DB
:10501C001B020B4340460CA900F056FAB0E6854B38
:10502C00002B00D154E600E000BF021E00D14FE679
:10503C00404613780CA900F047FAA1E62189FBF74A
:10504C0097FA021EF4D143E6022B00D1DCE07A4B36
:10505C00002B00D13CE600E000BF0200002A00D18A
:10506C0036E6D3E7FBF774FA122302000CA940468C
:10507C0000F02AFA84E6E288002A08D1012827D019
:10508C00009BFB189E193036F3789B0734D5019E94
:10509C00002E00D19EE5F3681800009300F07CFA16
:1050AC00F36801210CAA40469847002000F074FADE
:1050BC003423FB5CDB0700D58CE5D4E65A4A5E0052
:1050CC00F3181668DB00F618002E00D100E6E7E6B0
:1050DC00009BFB189E193036F3789B07D7D5574B9E
:1050EC001878FFF7F9FB0222F3789343F370F37807
:1050FC00029A9343F370CAE7504B1878FFF7D0FB32
:10510C000222F37813430122F370F3781343F37004
:10511C00BDE70AAB9A1C404601230CA9167000F09F
:10512C00D3F957E5581EC0B2FBF71AFA002800D184
:10513C00CEE543780893022B00D0C9E50121060087
:10514C00C2790936931152110B400A4012015B01CE
:10515C0013433A782F318A4313433B70C3788278D8
:10516C001B021343C31807934346B0460693079B91
:10517C00434500D88CE0434601225B7803920B2B0D
:10518C0005D14346DB78039343461B78984443464A
:10519C005B78042B00D09BE542460021079B0191D4
:1051AC009B1A9BB20293264A264B00911B788A428B
:1051BC004CD0009A9A422BD3D31ADBB2022B00D9D3
:1051CC0086E552465343204AD6184146029A069821
:1051DC00B36898478446082802D9029A824260D262
:1051EC00009B0133D9B2174B00911B7801919A1C8B
:1051FC008A42DEDA6CE54046FFF73CFBBE7840465F
:10520C00FFF7D0FBBE70BDE6FBF7AAF9020025E75D
:10521C00054B56461B6856430593059B9C466644B6
:10522C00002ED2D154E5C046E0A50020E49D00201C
:10523C00A103002000000000000000005CA0002082
:10524C001910002015040220249E00202C4B0593DD
:10525C00019AD3B20093032A00D139E5059B41464C
:10526C001E009B68029A0698099398478446082862
:10527C0002D9029A824214D2059B019A18330593E3
:10528C00204B01321B78019202339A42E0DD1FE57C
:10529C00069B98461C4B002B00D177E600E000BF24
:1052AC0074E6039B012B23D0002240460BE083784D
:1052BC00D318DBB2FB18D978FF2900D008E5009988
:1052CC000132D970D2B2039B9A42F0D16646624643
:1052DC0080460100009B584601F01CF8B446094B6F
:1052EC00019A1B78E04402339A4200DC3FE7EFE47A
:1052FC00064BB2689A42D7D1089B0393D4E7C046B9
:10530C00249E0020150402200000000021570020DC
:10531C00F8B557464E46DE4645460C00E0B516003D
:10532C001F00002A3CD0702398461E4B00259B463C
:10533C001D4B9A461AE05B461B7820009946534653
:10534C00997800F0ABFF00281CD021004846FFF7ED
:10535C000DFA002816D0A378DA09012A19D00A9A76
:10536C00013513702378E418B54219DA6378052BEC
:10537C0008D1E3789B079B0FBB4203D14246A3782D
:10538C001A42D8D00020F0BCBB46B246A946A04673
:10539C00F8BD0B9A013513702378E418B542E5DBA0
:1053AC000120F0E75CA0002058B80020702270B5F6
:1053BC008B780C001A4201D0002070BD064B2000E7
:1053CC001D78064B997800F069FF0028F4D0210075
:1053DC002800FFF7CBF9F0E75CA0002058B80020BC
:1053EC00074B080019687F2310B50340C0095B0008
:1053FC0033301818034B181800F00CFF10BDC046C2
:10540C00ACB8002058B80020074B080019687F235F
:10541C0010B50340C0095B0033301818034B181843
:10542C0000F020FF10BDC046ACB8002058B80020DA
:10543C007F2070B508400F4C4000CD09241864192A
:10544C003034E5780020ED0700D570BD0126E578F5
:10545C00094835430078E570FFF710FA0028F4D1BD
:10546C000122E3789343E370E37803329343E370D0
:10547C00EBE7C04658B800205CA000207F22CB0987
:10548C000A40044952008918C9183031C878C0073D
:10549C00C00F704758B8002070B50A4E0500300098
:1054AC0008220C00FEF754FE00237F21F3602278C3
:1054BC00B36091425B412800D90100220023FFF721
:1054CC00B7FF70BD2CB70020F8B5CE4647469146C5
:1054DC002A4E80B50822070030000D009846FEF7D2
:1054EC0037FE4B46B3600023F381EC79A979240293
:1054FC000C43231C444500D943469AB29046B381D1
:10550C00002C13D0002A1FD04B46002B34D0131C78
:10551C00402A1FD89BB2984633787F2B20D8002185
:10552C00174A43463800FFF783FF09E07F222B78A8
:10553C0038009A42644100230022E101FFF778FF12
:10554C00C0BCB946B046F8BD33787F2B11D9802149
:10555C000022E6E740239BB2984633787F2BDED9B6
:10556C00074C424649462000FEF7F2FD80212200FE
:10557C00D7E700210022D4E70020E1E72CB7002078
:10558C0018B8002010B5142200210248FEF7DAFDED
:10559C0010BDC0462CB70020014B18617047C046A7
:1055AC002CB7002010B5054C010008222000FEF796
:1055BC00CFFD0023A360E36010BDC0462CB70020D4
:1055CC00F8B53B4C1D0023780600DA09C9098A425C
:1055DC0013D00020002D00D0F8BD364B002B03D08B
:1055EC0021003000FFF7B4F82369002B44D02200CF
:1055FC000321300098470120EEE77F2B06D8A068E6
:10560C00002837D02A002C49FEF7A2FDA368E289B6
:10561C0059195219E38892B2E281A160934214D0D5
:10562C003F2D12D9A589A81A071C80B240282FD863
:10563C002378BFB27F2B2DD80021AA4235D01E4A29
:10564C003B003000FFF7F4FEC6E72369002B05D0C2
:10565C00220002213000984700280FD07F22002121
:10566C00237830009A42494100230022C901FFF7F8
:10567C00DFFEB1E70020AFE70120ADE700213000ED
:10568C00FFF70EF930008021FFF70AF90120A3E79C
:10569C004027CDE7AA4207D0074C3A002000FEF77E
:1056AC0057FD80212200CBE780210022C8E7C046AD
:1056BC002CB700200145002018B8002010B50400BC
:1056CC00FFF7C6F9002801D1002010BDFFF7C8F97B
:1056DC000028F9D1034844430348001903790120F9
:1056EC001840F2E748110000E4A50020044B10B567
:1056FC005843044B1030C01800F05EFE10BDC0467D
:10570C0048110000E4A50020F0B5194DC6464543EC
:10571C002C00184F1034E41900B5200092B200F0A0
:10572C00CFFE0600200000F065FE3F2803D83000B5
:10573C0080BCB846F0BD7B190020D9789846FFF79D
:10574C004FFE0028F3D0200000F054FE3F2809D96A
:10575C00094B0020EA184346D219D9784023FFF7A9
:10576C0067FEE4E743460020D978FFF74DFEDEE7FD
:10577C0048110000E4A50020C8100000F8B5144D35
:10578C00144E45432C001034A419200001F006F8E7
:10579C00200000F02FFE3F2800D8F8BD771900201C
:1057AC00F978FFF71DFE0028F7D0200000F022FE4C
:1057BC003F2808D9084BF978EA18921940230020A1
:1057CC00FFF736FEE9E7F9780020FFF71DFEE4E766
:1057DC0048110000E4A50020C8100000F8B5040032
:1057EC00FFF736F9002801D10020F8BDFFF738F992
:1057FC000028F9D11548164E444325002435AD191F
:10580C00280000F0D9FD0028EED037190020B97817
:10581C00FFF7E6FD0028E7D00E4B28009C466444B9
:10582C00A4192100402200F04BFEB978051E08D0C7
:10583C00030022000020FFF7FBFD0028D4D0280035
:10584C00D3E70020FFF7E0FDCEE7C046481100008B
:10585C00E4A500200811000070B50B4C0B4B444321
:10586C002434E418050092B2200000F0E3FE060098
:10587C00200000F0A1FD3F2801D8300070BD2800A9
:10588C00FFF7ACFFF9E7C04648110000E4A5002083
:10589C00044B10B55843044B2430C01800F0AAFD3B
:1058AC0010BDC04648110000E4A50020044B10B503
:1058BC005843044B2430C01800F070FF10BDC04694
:1058CC0048110000E4A5002070B51A4C82B00021EC
:1058DC002000194AFEF736FCFF236371174B002595
:1058EC00E3800126082321002000268123738022D7
:1058FC0038310095073B103000F026FD21002000C8
:10590C008022B831520100960123243000F01CFD96
:10591C000B4BE6183000FCF7CBFA86235B012662B2
:10592C00E6183000E561FCF7C3FA2663656302B044
:10593C0070BDC046E4A500204811000000C2FFFF66
:10594C00B810000010B5094C052200212000FEF70C
:10595C00F9FB20002434103000F020FF200000F070
:10596C001DFF0121200000F039FF10BDE4A500202F
:10597C00F0B54B79060083B0022B02D18B79022B48
:10598C0003D00025280003B0F0BD2F4FBB78002BAF
:10599C00F7D18B7809253B700C780C196378242B84
:1059AC000BD1082A02D80FE0AA420DD32378E418B1
:1059BC00ED186378ADB2242BF6D0052B1FD0042B39
:1059CC0002D163790A2B2DD0204C200000F012FD5F
:1059DC003F28D7D92600103E0020F178FFF700FDB4
:1059EC000028CFD0200000F005FD3F2815D9184B1A
:1059FC00F178E21800204023FFF71AFDC2E72100DE
:105A0C003000FFF7D3FC0028BBD0A3787B70237841
:105A1C00ED18E4186378ADB2D1E7F1780020FFF708
:105A2C00F3FCAFE70B4B2778019301330093022271
:105A3C0002233000E119FFF76BFC0028A1D00E35D2
:105A4C00ED19ADB2C0E7C046E4A50020F4A50020D6
:105A5C00B8100000E6A50020F8B5602314001278F9
:105A6C00050013400020202B12D12F4A637927798F
:105A7C0016781B023B439E420AD16378222B27D017
:105A8C0007D8202B17D0212B02D101293DD0012082
:105A9C00F8BD232BFCD101293FD00329F7D1234B8F
:105AAC00002BF4D0E178A378090200201943FBF70E
:105ABC0015F80120ECE7012927D00329E7D11C4B6D
:105ACC00002BE4D00020911DFAF79CFF0120DFE7AA
